{
  "_format": "hh-sol-artifact-1",
  "contractName": "NSFWAI",
  "sourceName": "contracts/NSFW.sol",
  "abi": [
    {
      "inputs": [],
      "stateMutability": "nonpayable",
      "type": "constructor"
    },
    {
      "anonymous": false,
      "inputs": [
        {
          "indexed": true,
          "internalType": "address",
          "name": "owner",
          "type": "address"
        },
        {
          "indexed": true,
          "internalType": "address",
          "name": "spender",
          "type": "address"
        },
        {
          "indexed": false,
          "internalType": "uint256",
          "name": "value",
          "type": "uint256"
        }
      ],
      "name": "Approval",
      "type": "event"
    },
    {
      "anonymous": false,
      "inputs": [
        {
          "indexed": false,
          "internalType": "address",
          "name": "_address",
          "type": "address"
        },
        {
          "indexed": false,
          "internalType": "bool",
          "name": "_status",
          "type": "bool"
        }
      ],
      "name": "ExcludedFromFeeUpdated",
      "type": "event"
    },
    {
      "anonymous": false,
      "inputs": [
        {
          "indexed": false,
          "internalType": "string",
          "name": "message",
          "type": "string"
        }
      ],
      "name": "Log1",
      "type": "event"
    },
    {
      "anonymous": false,
      "inputs": [
        {
          "indexed": false,
          "internalType": "address",
          "name": "_address",
          "type": "address"
        },
        {
          "indexed": false,
          "internalType": "string",
          "name": "message",
          "type": "string"
        }
      ],
      "name": "Log2",
      "type": "event"
    },
    {
      "anonymous": false,
      "inputs": [
        {
          "indexed": false,
          "internalType": "uint256",
          "name": "value",
          "type": "uint256"
        },
        {
          "indexed": false,
          "internalType": "string",
          "name": "message",
          "type": "string"
        }
      ],
      "name": "Log3",
      "type": "event"
    },
    {
      "anonymous": false,
      "inputs": [
        {
          "indexed": true,
          "internalType": "address",
          "name": "previousOwner",
          "type": "address"
        },
        {
          "indexed": true,
          "internalType": "address",
          "name": "newOwner",
          "type": "address"
        }
      ],
      "name": "OwnershipTransferred",
      "type": "event"
    },
    {
      "anonymous": false,
      "inputs": [
        {
          "indexed": false,
          "internalType": "uint256",
          "name": "tokensSwapped",
          "type": "uint256"
        },
        {
          "indexed": false,
          "internalType": "uint256",
          "name": "ethReceived",
          "type": "uint256"
        },
        {
          "indexed": false,
          "internalType": "uint256",
          "name": "tokensIntoLiqudity",
          "type": "uint256"
        }
      ],
      "name": "SwapAndLiquify",
      "type": "event"
    },
    {
      "anonymous": false,
      "inputs": [
        {
          "indexed": true,
          "internalType": "address",
          "name": "from",
          "type": "address"
        },
        {
          "indexed": true,
          "internalType": "address",
          "name": "to",
          "type": "address"
        },
        {
          "indexed": false,
          "internalType": "uint256",
          "name": "value",
          "type": "uint256"
        }
      ],
      "name": "Transfer",
      "type": "event"
    },
    {
      "inputs": [],
      "name": "DEAD",
      "outputs": [
        {
          "internalType": "address",
          "name": "",
          "type": "address"
        }
      ],
      "stateMutability": "view",
      "type": "function"
    },
    {
      "inputs": [
        {
          "internalType": "address",
          "name": "",
          "type": "address"
        }
      ],
      "name": "_isExcludedFromFee",
      "outputs": [
        {
          "internalType": "bool",
          "name": "",
          "type": "bool"
        }
      ],
      "stateMutability": "view",
      "type": "function"
    },
    {
      "inputs": [],
      "name": "_marketingReserves",
      "outputs": [
        {
          "internalType": "uint256",
          "name": "",
          "type": "uint256"
        }
      ],
      "stateMutability": "view",
      "type": "function"
    },
    {
      "inputs": [
        {
          "internalType": "address",
          "name": "owner",
          "type": "address"
        },
        {
          "internalType": "address",
          "name": "spender",
          "type": "address"
        }
      ],
      "name": "allowance",
      "outputs": [
        {
          "internalType": "uint256",
          "name": "",
          "type": "uint256"
        }
      ],
      "stateMutability": "view",
      "type": "function"
    },
    {
      "inputs": [
        {
          "internalType": "address",
          "name": "spender",
          "type": "address"
        },
        {
          "internalType": "uint256",
          "name": "amount",
          "type": "uint256"
        }
      ],
      "name": "approve",
      "outputs": [
        {
          "internalType": "bool",
          "name": "",
          "type": "bool"
        }
      ],
      "stateMutability": "nonpayable",
      "type": "function"
    },
    {
      "inputs": [
        {
          "internalType": "address",
          "name": "account",
          "type": "address"
        }
      ],
      "name": "balanceOf",
      "outputs": [
        {
          "internalType": "uint256",
          "name": "",
          "type": "uint256"
        }
      ],
      "stateMutability": "view",
      "type": "function"
    },
    {
      "inputs": [
        {
          "internalType": "address",
          "name": "newWallet",
          "type": "address"
        }
      ],
      "name": "changeMarketingWallet",
      "outputs": [
        {
          "internalType": "bool",
          "name": "",
          "type": "bool"
        }
      ],
      "stateMutability": "nonpayable",
      "type": "function"
    },
    {
      "inputs": [
        {
          "internalType": "uint256",
          "name": "_maxTxAmount",
          "type": "uint256"
        }
      ],
      "name": "changeMaxTxAmount",
      "outputs": [
        {
          "internalType": "bool",
          "name": "",
          "type": "bool"
        }
      ],
      "stateMutability": "nonpayable",
      "type": "function"
    },
    {
      "inputs": [
        {
          "internalType": "uint256",
          "name": "_maxWalletAmount",
          "type": "uint256"
        }
      ],
      "name": "changeMaxWalletAmount",
      "outputs": [
        {
          "internalType": "bool",
          "name": "",
          "type": "bool"
        }
      ],
      "stateMutability": "nonpayable",
      "type": "function"
    },
    {
      "inputs": [
        {
          "internalType": "uint256",
          "name": "_numTokensSellToAddToLiquidity",
          "type": "uint256"
        },
        {
          "internalType": "uint256",
          "name": "_numTokensSellToAddToETH",
          "type": "uint256"
        }
      ],
      "name": "changeSwapThresholds",
      "outputs": [
        {
          "internalType": "bool",
          "name": "",
          "type": "bool"
        }
      ],
      "stateMutability": "nonpayable",
      "type": "function"
    },
    {
      "inputs": [
        {
          "internalType": "uint256",
          "name": "_taxForLiquidity",
          "type": "uint256"
        },
        {
          "internalType": "uint256",
          "name": "_taxForMarketing",
          "type": "uint256"
        }
      ],
      "name": "changeTaxForLiquidityAndMarketing",
      "outputs": [
        {
          "internalType": "bool",
          "name": "",
          "type": "bool"
        }
      ],
      "stateMutability": "nonpayable",
      "type": "function"
    },
    {
      "inputs": [],
      "name": "decimals",
      "outputs": [
        {
          "internalType": "uint8",
          "name": "",
          "type": "uint8"
        }
      ],
      "stateMutability": "view",
      "type": "function"
    },
    {
      "inputs": [
        {
          "internalType": "address",
          "name": "spender",
          "type": "address"
        },
        {
          "internalType": "uint256",
          "name": "subtractedValue",
          "type": "uint256"
        }
      ],
      "name": "decreaseAllowance",
      "outputs": [
        {
          "internalType": "bool",
          "name": "",
          "type": "bool"
        }
      ],
      "stateMutability": "nonpayable",
      "type": "function"
    },
    {
      "inputs": [
        {
          "internalType": "address",
          "name": "_address",
          "type": "address"
        },
        {
          "internalType": "bool",
          "name": "_status",
          "type": "bool"
        }
      ],
      "name": "excludeFromFee",
      "outputs": [],
      "stateMutability": "nonpayable",
      "type": "function"
    },
    {
      "inputs": [
        {
          "internalType": "address",
          "name": "spender",
          "type": "address"
        },
        {
          "internalType": "uint256",
          "name": "addedValue",
          "type": "uint256"
        }
      ],
      "name": "increaseAllowance",
      "outputs": [
        {
          "internalType": "bool",
          "name": "",
          "type": "bool"
        }
      ],
      "stateMutability": "nonpayable",
      "type": "function"
    },
    {
      "inputs": [],
      "name": "marketingWallet",
      "outputs": [
        {
          "internalType": "address",
          "name": "",
          "type": "address"
        }
      ],
      "stateMutability": "view",
      "type": "function"
    },
    {
      "inputs": [],
      "name": "maxTxAmount",
      "outputs": [
        {
          "internalType": "uint256",
          "name": "",
          "type": "uint256"
        }
      ],
      "stateMutability": "view",
      "type": "function"
    },
    {
      "inputs": [],
      "name": "maxWalletAmount",
      "outputs": [
        {
          "internalType": "uint256",
          "name": "",
          "type": "uint256"
        }
      ],
      "stateMutability": "view",
      "type": "function"
    },
    {
      "inputs": [],
      "name": "name",
      "outputs": [
        {
          "internalType": "string",
          "name": "",
          "type": "string"
        }
      ],
      "stateMutability": "view",
      "type": "function"
    },
    {
      "inputs": [],
      "name": "numTokensSellToAddToETH",
      "outputs": [
        {
          "internalType": "uint256",
          "name": "",
          "type": "uint256"
        }
      ],
      "stateMutability": "view",
      "type": "function"
    },
    {
      "inputs": [],
      "name": "numTokensSellToAddToLiquidity",
      "outputs": [
        {
          "internalType": "uint256",
          "name": "",
          "type": "uint256"
        }
      ],
      "stateMutability": "view",
      "type": "function"
    },
    {
      "inputs": [],
      "name": "owner",
      "outputs": [
        {
          "internalType": "address",
          "name": "",
          "type": "address"
        }
      ],
      "stateMutability": "view",
      "type": "function"
    },
    {
      "inputs": [],
      "name": "postLaunch",
      "outputs": [],
      "stateMutability": "nonpayable",
      "type": "function"
    },
    {
      "inputs": [],
      "name": "renounceOwnership",
      "outputs": [],
      "stateMutability": "nonpayable",
      "type": "function"
    },
    {
      "inputs": [],
      "name": "symbol",
      "outputs": [
        {
          "internalType": "string",
          "name": "",
          "type": "string"
        }
      ],
      "stateMutability": "view",
      "type": "function"
    },
    {
      "inputs": [],
      "name": "taxForLiquidity",
      "outputs": [
        {
          "internalType": "uint256",
          "name": "",
          "type": "uint256"
        }
      ],
      "stateMutability": "view",
      "type": "function"
    },
    {
      "inputs": [],
      "name": "taxForMarketing",
      "outputs": [
        {
          "internalType": "uint256",
          "name": "",
          "type": "uint256"
        }
      ],
      "stateMutability": "view",
      "type": "function"
    },
    {
      "inputs": [],
      "name": "totalSupply",
      "outputs": [
        {
          "internalType": "uint256",
          "name": "",
          "type": "uint256"
        }
      ],
      "stateMutability": "view",
      "type": "function"
    },
    {
      "inputs": [
        {
          "internalType": "address",
          "name": "to",
          "type": "address"
        },
        {
          "internalType": "uint256",
          "name": "amount",
          "type": "uint256"
        }
      ],
      "name": "transfer",
      "outputs": [
        {
          "internalType": "bool",
          "name": "",
          "type": "bool"
        }
      ],
      "stateMutability": "nonpayable",
      "type": "function"
    },
    {
      "inputs": [
        {
          "internalType": "address",
          "name": "from",
          "type": "address"
        },
        {
          "internalType": "address",
          "name": "to",
          "type": "address"
        },
        {
          "internalType": "uint256",
          "name": "amount",
          "type": "uint256"
        }
      ],
      "name": "transferFrom",
      "outputs": [
        {
          "internalType": "bool",
          "name": "",
          "type": "bool"
        }
      ],
      "stateMutability": "nonpayable",
      "type": "function"
    },
    {
      "inputs": [
        {
          "internalType": "address",
          "name": "newOwner",
          "type": "address"
        }
      ],
      "name": "transferOwnership",
      "outputs": [],
      "stateMutability": "nonpayable",
      "type": "function"
    },
    {
      "inputs": [],
      "name": "uniswapV2Pair",
      "outputs": [
        {
          "internalType": "address",
          "name": "",
          "type": "address"
        }
      ],
      "stateMutability": "view",
      "type": "function"
    },
    {
      "inputs": [],
      "name": "uniswapV2Router",
      "outputs": [
        {
          "internalType": "contract IUniswapV2Router02",
          "name": "",
          "type": "address"
        }
      ],
      "stateMutability": "view",
      "type": "function"
    },
    {
      "stateMutability": "payable",
      "type": "receive"
    }
  ],
  "bytecode": "0x60a06040526040518060400160405280601381526020017f4e534657204149207c206e73667761692e696f00000000000000000000000000815250600690816200004a919062000b9d565b506040518060400160405280600481526020017f4e534657000000000000000000000000000000000000000000000000000000008152506007908162000091919062000b9d565b506009600860006101000a81548160ff021916908360ff160217905550633b9aca00600955602f600a55602f600b55600860009054906101000a900460ff16600a620000de919062000e14565b62989681620000ee919062000e65565b600c55600860009054906101000a900460ff16600a6200010f919062000e14565b629896816200011f919062000e65565b600d55734db71f3246a0c46dae0fd1d55e36dd12262367a1600e60006101000a81548173ffffffffffffffffffffffffffffffffffffffff021916908373ffffffffffffffffffffffffffffffffffffffff160217905550739d1a9cdc740aed6b1336b05ca06b58f3dffc1592600f60006101000a81548173ffffffffffffffffffffffffffffffffffffffff021916908373ffffffffffffffffffffffffffffffffffffffff1602179055506000601055600860009054906101000a900460ff16600a620001ef919062000e14565b62030d40620001ff919062000e65565b601255600860009054906101000a900460ff16600a62000220919062000e14565b620186a062000230919062000e65565b6013553480156200024057600080fd5b506006805462000250906200098c565b80601f01602080910402602001604051908101604052809291908181526020018280546200027e906200098c565b8015620002cf5780601f10620002a357610100808354040283529160200191620002cf565b820191906000526020600020905b815481529060010190602001808311620002b157829003601f168201915b505050505060078054620002e3906200098c565b80601f016020809104026020016040519081016040528092919081815260200182805462000311906200098c565b8015620003625780601f10620003365761010080835404028352916020019162000362565b820191906000526020600020905b8154815290600101906020018083116200034457829003601f168201915b5050505050816003908162000378919062000b9d565b5080600490816200038a919062000b9d565b505050620003ad620003a16200071060201b60201c565b6200071860201b60201c565b620003eb33600860009054906101000a900460ff16600a620003d0919062000e14565b600954620003df919062000e65565b620007de60201b60201c565b6000737a250d5630b4cf539739df2c5dacb4c659f2488d90508073ffffffffffffffffffffffffffffffffffffffff1663c45a01556040518163ffffffff1660e01b8152600401602060405180830381865afa15801562000450573d6000803e3d6000fd5b505050506040513d601f19601f8201168201806040525081019062000476919062000f1a565b73ffffffffffffffffffffffffffffffffffffffff1663c9c65396308373ffffffffffffffffffffffffffffffffffffffff1663ad5c46486040518163ffffffff1660e01b8152600401602060405180830381865afa158015620004de573d6000803e3d6000fd5b505050506040513d601f19601f8201168201806040525081019062000504919062000f1a565b6040518363ffffffff1660e01b81526004016200052392919062000f5d565b6020604051808303816000875af115801562000543573d6000803e3d6000fd5b505050506040513d601f19601f8201168201806040525081019062000569919062000f1a565b601460006101000a81548173ffffffffffffffffffffffffffffffffffffffff021916908373ffffffffffffffffffffffffffffffffffffffff1602179055508073ffffffffffffffffffffffffffffffffffffffff1660808173ffffffffffffffffffffffffffffffffffffffff168152505060016011600060805173ffffffffffffffffffffffffffffffffffffffff1673ffffffffffffffffffffffffffffffffffffffff16815260200190815260200160002060006101000a81548160ff0219169083151502179055506001601160003373ffffffffffffffffffffffffffffffffffffffff1673ffffffffffffffffffffffffffffffffffffffff16815260200190815260200160002060006101000a81548160ff021916908315150217905550600160116000600e60009054906101000a900473ffffffffffffffffffffffffffffffffffffffff1673ffffffffffffffffffffffffffffffffffffffff1673ffffffffffffffffffffffffffffffffffffffff16815260200190815260200160002060006101000a81548160ff0219169083151502179055505062001076565b600033905090565b6000600560009054906101000a900473ffffffffffffffffffffffffffffffffffffffff16905081600560006101000a81548173ffffffffffffffffffffffffffffffffffffffff021916908373ffffffffffffffffffffffffffffffffffffffff1602179055508173ffffffffffffffffffffffffffffffffffffffff168173ffffffffffffffffffffffffffffffffffffffff167f8be0079c531659141344cd1fd0a4f28419497f9722a3daafe3b4186f6b6457e060405160405180910390a35050565b600073ffffffffffffffffffffffffffffffffffffffff168273ffffffffffffffffffffffffffffffffffffffff160362000850576040517f08c379a0000000000000000000000000000000000000000000000000000000008152600401620008479062000feb565b60405180910390fd5b80600260008282546200086491906200100d565b92505081905550806000808473ffffffffffffffffffffffffffffffffffffffff1673ffffffffffffffffffffffffffffffffffffffff168152602001908152602001600020600082825401925050819055508173ffffffffffffffffffffffffffffffffffffffff16600073ffffffffffffffffffffffffffffffffffffffff167fddf252ad1be2c89b69c2b068fc378daa952ba7f163c4a11628f55a4df523b3ef8360405162000917919062001059565b60405180910390a35050565b600081519050919050565b7f4e487b7100000000000000000000000000000000000000000000000000000000600052604160045260246000fd5b7f4e487b7100000000000000000000000000000000000000000000000000000000600052602260045260246000fd5b60006002820490506001821680620009a557607f821691505b602082108103620009bb57620009ba6200095d565b5b50919050565b60008190508160005260206000209050919050565b60006020601f8301049050919050565b600082821b905092915050565b60006008830262000a257fffffffffffffffffffffffffffffffffffffffffffffffffffffffffffffffff82620009e6565b62000a318683620009e6565b95508019841693508086168417925050509392505050565b6000819050919050565b6000819050919050565b600062000a7e62000a7862000a728462000a49565b62000a53565b62000a49565b9050919050565b6000819050919050565b62000a9a8362000a5d565b62000ab262000aa98262000a85565b848454620009f3565b825550505050565b600090565b62000ac962000aba565b62000ad681848462000a8f565b505050565b5b8181101562000afe5762000af260008262000abf565b60018101905062000adc565b5050565b601f82111562000b4d5762000b1781620009c1565b62000b2284620009d6565b8101602085101562000b32578190505b62000b4a62000b4185620009d6565b83018262000adb565b50505b505050565b600082821c905092915050565b600062000b726000198460080262000b52565b1980831691505092915050565b600062000b8d838362000b5f565b9150826002028217905092915050565b62000ba88262000923565b67ffffffffffffffff81111562000bc45762000bc36200092e565b5b62000bd082546200098c565b62000bdd82828562000b02565b600060209050601f83116001811462000c15576000841562000c00578287015190505b62000c0c858262000b7f565b86555062000c7c565b601f19841662000c2586620009c1565b60005b8281101562000c4f5784890151825560018201915060208501945060208101905062000c28565b8683101562000c6f578489015162000c6b601f89168262000b5f565b8355505b6001600288020188555050505b505050505050565b7f4e487b7100000000000000000000000000000000000000000000000000000000600052601160045260246000fd5b60008160011c9050919050565b6000808291508390505b600185111562000d125780860481111562000cea5762000ce962000c84565b5b600185161562000cfa5780820291505b808102905062000d0a8562000cb3565b945062000cca565b94509492505050565b60008262000d2d576001905062000e00565b8162000d3d576000905062000e00565b816001811462000d56576002811462000d615762000d97565b600191505062000e00565b60ff84111562000d765762000d7562000c84565b5b8360020a91508482111562000d905762000d8f62000c84565b5b5062000e00565b5060208310610133831016604e8410600b841016171562000dd15782820a90508381111562000dcb5762000dca62000c84565b5b62000e00565b62000de0848484600162000cc0565b9250905081840481111562000dfa5762000df962000c84565b5b81810290505b9392505050565b600060ff82169050919050565b600062000e218262000a49565b915062000e2e8362000e07565b925062000e5d7fffffffffffffffffffffffffffffffffffffffffffffffffffffffffffffffff848462000d1b565b905092915050565b600062000e728262000a49565b915062000e7f8362000a49565b925082820262000e8f8162000a49565b9150828204841483151762000ea95762000ea862000c84565b5b5092915050565b600080fd5b600073ffffffffffffffffffffffffffffffffffffffff82169050919050565b600062000ee28262000eb5565b9050919050565b62000ef48162000ed5565b811462000f0057600080fd5b50565b60008151905062000f148162000ee9565b92915050565b60006020828403121562000f335762000f3262000eb0565b5b600062000f438482850162000f03565b91505092915050565b62000f578162000ed5565b82525050565b600060408201905062000f74600083018562000f4c565b62000f83602083018462000f4c565b9392505050565b600082825260208201905092915050565b7f45524332303a206d696e7420746f20746865207a65726f206164647265737300600082015250565b600062000fd3601f8362000f8a565b915062000fe08262000f9b565b602082019050919050565b60006020820190508181036000830152620010068162000fc4565b9050919050565b60006200101a8262000a49565b9150620010278362000a49565b925082820190508082111562001042576200104162000c84565b5b92915050565b620010538162000a49565b82525050565b600060208201905062001070600083018462001048565b92915050565b608051613400620010b56000396000818161092401528181611bd401528181611cb501528181611cdc0152818161200c015261203301526134006000f3fe6080604052600436106101f25760003560e01c806381bfdcca1161010d578063ad16a0cf116100a0578063d12a76881161006f578063d12a768814610762578063dd62ed3e1461078d578063df8408fe146107ca578063f2fde38b146107f3578063f345bd851461081c576101f9565b8063ad16a0cf14610692578063af8af690146106bd578063bb85c6d1146106fa578063c0fdea5714610737576101f9565b8063a3996f7b116100dc578063a3996f7b146105d6578063a457c2d7146105ed578063a9059cbb1461062a578063aa4bde2814610667576101f9565b806381bfdcca146105185780638c0b5e22146105555780638da5cb5b1461058057806395d89b41146105ab576101f9565b8063395093511161018557806370a082311161015457806370a082311461045c578063715018a61461049957806375f0a874146104b0578063768dc710146104db576101f9565b8063395093511461038c57806349bd5a5e146103c9578063527ffabd146103f4578063677daa571461041f576101f9565b806318160ddd116101c157806318160ddd146102bc57806323b872dd146102e757806330b63d8014610324578063313ce56714610361576101f9565b806303fd2a45146101fe57806306fdde0314610229578063095ea7b3146102545780631694505e14610291576101f9565b366101f957005b600080fd5b34801561020a57600080fd5b50610213610847565b604051610220919061215d565b60405180910390f35b34801561023557600080fd5b5061023e61086d565b60405161024b9190612208565b60405180910390f35b34801561026057600080fd5b5061027b60048036038101906102769190612291565b6108ff565b60405161028891906122ec565b60405180910390f35b34801561029d57600080fd5b506102a6610922565b6040516102b39190612366565b60405180910390f35b3480156102c857600080fd5b506102d1610946565b6040516102de9190612390565b60405180910390f35b3480156102f357600080fd5b5061030e600480360381019061030991906123ab565b610950565b60405161031b91906122ec565b60405180910390f35b34801561033057600080fd5b5061034b600480360381019061034691906123fe565b61097f565b60405161035891906122ec565b60405180910390f35b34801561036d57600080fd5b50610376610a8d565b604051610383919061245a565b60405180910390f35b34801561039857600080fd5b506103b360048036038101906103ae9190612291565b610a96565b6040516103c091906122ec565b60405180910390f35b3480156103d557600080fd5b506103de610acd565b6040516103eb919061215d565b60405180910390f35b34801561040057600080fd5b50610409610af3565b6040516104169190612390565b60405180910390f35b34801561042b57600080fd5b5061044660048036038101906104419190612475565b610af9565b60405161045391906122ec565b60405180910390f35b34801561046857600080fd5b50610483600480360381019061047e91906124a2565b610b13565b6040516104909190612390565b60405180910390f35b3480156104a557600080fd5b506104ae610b5b565b005b3480156104bc57600080fd5b506104c5610b6f565b6040516104d2919061215d565b60405180910390f35b3480156104e757600080fd5b5061050260048036038101906104fd91906124a2565b610b95565b60405161050f91906122ec565b60405180910390f35b34801561052457600080fd5b5061053f600480360381019061053a9190612475565b610bb5565b60405161054c91906122ec565b60405180910390f35b34801561056157600080fd5b5061056a610bcf565b6040516105779190612390565b60405180910390f35b34801561058c57600080fd5b50610595610bd5565b6040516105a2919061215d565b60405180910390f35b3480156105b757600080fd5b506105c0610bff565b6040516105cd9190612208565b60405180910390f35b3480156105e257600080fd5b506105eb610c91565b005b3480156105f957600080fd5b50610614600480360381019061060f9190612291565b610d0b565b60405161062191906122ec565b60405180910390f35b34801561063657600080fd5b50610651600480360381019061064c9190612291565b610d82565b60405161065e91906122ec565b60405180910390f35b34801561067357600080fd5b5061067c610da5565b6040516106899190612390565b60405180910390f35b34801561069e57600080fd5b506106a7610dab565b6040516106b49190612390565b60405180910390f35b3480156106c957600080fd5b506106e460048036038101906106df91906123fe565b610db1565b6040516106f191906122ec565b60405180910390f35b34801561070657600080fd5b50610721600480360381019061071c91906124a2565b610e22565b60405161072e91906122ec565b60405180910390f35b34801561074357600080fd5b5061074c610f75565b6040516107599190612390565b60405180910390f35b34801561076e57600080fd5b50610777610f7b565b6040516107849190612390565b60405180910390f35b34801561079957600080fd5b506107b460048036038101906107af91906124cf565b610f81565b6040516107c19190612390565b60405180910390f35b3480156107d657600080fd5b506107f160048036038101906107ec919061253b565b611008565b005b3480156107ff57600080fd5b5061081a600480360381019061081591906124a2565b6110a4565b005b34801561082857600080fd5b50610831611127565b60405161083e9190612390565b60405180910390f35b600f60009054906101000a900473ffffffffffffffffffffffffffffffffffffffff1681565b60606003805461087c906125aa565b80601f01602080910402602001604051908101604052809291908181526020018280546108a8906125aa565b80156108f55780601f106108ca576101008083540402835291602001916108f5565b820191906000526020600020905b8154815290600101906020018083116108d857829003601f168201915b5050505050905090565b60008061090a61112d565b9050610917818585611135565b600191505092915050565b7f000000000000000000000000000000000000000000000000000000000000000081565b6000600254905090565b60008061095b61112d565b90506109688582856112fe565b61097385858561138a565b60019150509392505050565b6000610989611918565b60626009546109989190612639565b83106109d9576040517f08c379a00000000000000000000000000000000000000000000000000000000081526004016109d0906126dc565b60405180910390fd5b60626009546109e89190612639565b8210610a29576040517f08c379a0000000000000000000000000000000000000000000000000000000008152600401610a20906126dc565b60405180910390fd5b600860009054906101000a900460ff16600a610a45919061282f565b83610a50919061287a565b601281905550600860009054906101000a900460ff16600a610a72919061282f565b82610a7d919061287a565b6013819055506001905092915050565b60006009905090565b600080610aa161112d565b9050610ac2818585610ab38589610f81565b610abd91906128bc565b611135565b600191505092915050565b601460009054906101000a900473ffffffffffffffffffffffffffffffffffffffff1681565b600b5481565b6000610b03611918565b81600c8190555060019050919050565b60008060008373ffffffffffffffffffffffffffffffffffffffff1673ffffffffffffffffffffffffffffffffffffffff168152602001908152602001600020549050919050565b610b63611918565b610b6d6000611996565b565b600e60009054906101000a900473ffffffffffffffffffffffffffffffffffffffff1681565b60116020528060005260406000206000915054906101000a900460ff1681565b6000610bbf611918565b81600d8190555060019050919050565b600c5481565b6000600560009054906101000a900473ffffffffffffffffffffffffffffffffffffffff16905090565b606060048054610c0e906125aa565b80601f0160208091040260200160405190810160405280929190818152602001828054610c3a906125aa565b8015610c875780601f10610c5c57610100808354040283529160200191610c87565b820191906000526020600020905b815481529060010190602001808311610c6a57829003601f168201915b5050505050905090565b610c99611918565b6001600a819055506004600b81905550600860009054906101000a900460ff16600a610cc5919061282f565b62989681610cd3919061287a565b600c81905550600860009054906101000a900460ff16600a610cf5919061282f565b62989681610d03919061287a565b600d81905550565b600080610d1661112d565b90506000610d248286610f81565b905083811015610d69576040517f08c379a0000000000000000000000000000000000000000000000000000000008152600401610d6090612962565b60405180910390fd5b610d768286868403611135565b60019250505092915050565b600080610d8d61112d565b9050610d9a81858561138a565b600191505092915050565b600d5481565b60135481565b6000610dbb611918565b600a8284610dc991906128bc565b1115610e0a576040517f08c379a0000000000000000000000000000000000000000000000000000000008152600401610e01906129f4565b60405180910390fd5b82600a8190555081600b819055506001905092915050565b6000610e2c611918565b600f60009054906101000a900473ffffffffffffffffffffffffffffffffffffffff1673ffffffffffffffffffffffffffffffffffffffff168273ffffffffffffffffffffffffffffffffffffffff1603610ebc576040517f08c379a0000000000000000000000000000000000000000000000000000000008152600401610eb390612a86565b60405180910390fd5b600073ffffffffffffffffffffffffffffffffffffffff168273ffffffffffffffffffffffffffffffffffffffff1603610f2b576040517f08c379a0000000000000000000000000000000000000000000000000000000008152600401610f2290612a86565b60405180910390fd5b81600e60006101000a81548173ffffffffffffffffffffffffffffffffffffffff021916908373ffffffffffffffffffffffffffffffffffffffff16021790555060019050919050565b60105481565b60125481565b6000600160008473ffffffffffffffffffffffffffffffffffffffff1673ffffffffffffffffffffffffffffffffffffffff16815260200190815260200160002060008373ffffffffffffffffffffffffffffffffffffffff1673ffffffffffffffffffffffffffffffffffffffff16815260200190815260200160002054905092915050565b611010611918565b80601160008473ffffffffffffffffffffffffffffffffffffffff1673ffffffffffffffffffffffffffffffffffffffff16815260200190815260200160002060006101000a81548160ff0219169083151502179055507f318c131114339c004fff0a22fcdbbc0566bb2a7cd3aa1660e636ec5a66784ff28282604051611098929190612aa6565b60405180910390a15050565b6110ac611918565b600073ffffffffffffffffffffffffffffffffffffffff168173ffffffffffffffffffffffffffffffffffffffff160361111b576040517f08c379a000000000000000000000000000000000000000000000000000000000815260040161111290612b41565b60405180910390fd5b61112481611996565b50565b600a5481565b600033905090565b600073ffffffffffffffffffffffffffffffffffffffff168373ffffffffffffffffffffffffffffffffffffffff16036111a4576040517f08c379a000000000000000000000000000000000000000000000000000000000815260040161119b90612bd3565b60405180910390fd5b600073ffffffffffffffffffffffffffffffffffffffff168273ffffffffffffffffffffffffffffffffffffffff1603611213576040517f08c379a000000000000000000000000000000000000000000000000000000000815260040161120a90612c65565b60405180910390fd5b80600160008573ffffffffffffffffffffffffffffffffffffffff1673ffffffffffffffffffffffffffffffffffffffff16815260200190815260200160002060008473ffffffffffffffffffffffffffffffffffffffff1673ffffffffffffffffffffffffffffffffffffffff168152602001908152602001600020819055508173ffffffffffffffffffffffffffffffffffffffff168373ffffffffffffffffffffffffffffffffffffffff167f8c5be1e5ebec7d5bd14f71427d1e84f3dd0314c0f7b2291e5b200ac8c7c3b925836040516112f19190612390565b60405180910390a3505050565b600061130a8484610f81565b90507fffffffffffffffffffffffffffffffffffffffffffffffffffffffffffffffff81146113845781811015611376576040517f08c379a000000000000000000000000000000000000000000000000000000000815260040161136d90612cd1565b60405180910390fd5b6113838484848403611135565b5b50505050565b600073ffffffffffffffffffffffffffffffffffffffff168373ffffffffffffffffffffffffffffffffffffffff16036113f9576040517f08c379a00000000000000000000000000000000000000000000000000000000081526004016113f090612d63565b60405180910390fd5b600073ffffffffffffffffffffffffffffffffffffffff168273ffffffffffffffffffffffffffffffffffffffff1603611468576040517f08c379a000000000000000000000000000000000000000000000000000000000815260040161145f90612df5565b60405180910390fd5b8061147284610b13565b10156114b3576040517f08c379a00000000000000000000000000000000000000000000000000000000081526004016114aa90612e87565b60405180910390fd5b601460009054906101000a900473ffffffffffffffffffffffffffffffffffffffff1673ffffffffffffffffffffffffffffffffffffffff168373ffffffffffffffffffffffffffffffffffffffff16148061155c5750601460009054906101000a900473ffffffffffffffffffffffffffffffffffffffff1673ffffffffffffffffffffffffffffffffffffffff168273ffffffffffffffffffffffffffffffffffffffff16145b8015611573575060148054906101000a900460ff16155b1561190757601460009054906101000a900473ffffffffffffffffffffffffffffffffffffffff1673ffffffffffffffffffffffffffffffffffffffff168373ffffffffffffffffffffffffffffffffffffffff16146116cc5760006010546115db30610b13565b6115e59190612ea7565b905060125481106115fc576115fb601254611a5c565b5b601354601054106116ca57611612601354611b1b565b601354601060008282546116269190612ea7565b925050819055506000600e60009054906101000a900473ffffffffffffffffffffffffffffffffffffffff1673ffffffffffffffffffffffffffffffffffffffff166108fc479081150290604051600060405180830381858888f193505050509050806116c8576040517f08c379a00000000000000000000000000000000000000000000000000000000081526004016116bf90612f27565b60405180910390fd5b505b505b6000601160008573ffffffffffffffffffffffffffffffffffffffff1673ffffffffffffffffffffffffffffffffffffffff16815260200190815260200160002060009054906101000a900460ff168061176f5750601160008473ffffffffffffffffffffffffffffffffffffffff1673ffffffffffffffffffffffffffffffffffffffff16815260200190815260200160002060009054906101000a900460ff165b1561177c578190506118f6565b600c548211156117c1576040517f08c379a00000000000000000000000000000000000000000000000000000000081526004016117b890612fb9565b60405180910390fd5b601460009054906101000a900473ffffffffffffffffffffffffffffffffffffffff1673ffffffffffffffffffffffffffffffffffffffff168473ffffffffffffffffffffffffffffffffffffffff160361186f57600d5461182284610b13565b8361182d91906128bc565b111561186e576040517f08c379a00000000000000000000000000000000000000000000000000000000081526004016118659061304b565b60405180910390fd5b5b60006064600b5484611881919061287a565b61188b9190612639565b905060006064600a548561189f919061287a565b6118a99190612639565b905080826118b791906128bc565b846118c29190612ea7565b925081601060008282546118d691906128bc565b925050819055506118f3863083856118ee91906128bc565b611d8c565b50505b611901848483611d8c565b50611913565b611912838383611d8c565b5b505050565b61192061112d565b73ffffffffffffffffffffffffffffffffffffffff1661193e610bd5565b73ffffffffffffffffffffffffffffffffffffffff1614611994576040517f08c379a000000000000000000000000000000000000000000000000000000000815260040161198b906130b7565b60405180910390fd5b565b6000600560009054906101000a900473ffffffffffffffffffffffffffffffffffffffff16905081600560006101000a81548173ffffffffffffffffffffffffffffffffffffffff021916908373ffffffffffffffffffffffffffffffffffffffff1602179055508173ffffffffffffffffffffffffffffffffffffffff168173ffffffffffffffffffffffffffffffffffffffff167f8be0079c531659141344cd1fd0a4f28419497f9722a3daafe3b4186f6b6457e060405160405180910390a35050565b60016014806101000a81548160ff0219169083151502179055506000600282611a859190612639565b905060008183611a959190612ea7565b90506000479050611aa583611b1b565b60008147611ab39190612ea7565b9050611abf8382611fec565b7f17bbfb9a6069321b6ded73bd96327c9e6b7212a5cd51ff219cd61370acafb561848285604051611af2939291906130d7565b60405180910390a15050505060006014806101000a81548160ff02191690831515021790555050565b60016014806101000a81548160ff0219169083151502179055506000600267ffffffffffffffff811115611b5257611b5161310e565b5b604051908082528060200260200182016040528015611b805781602001602082028036833780820191505090505b5090503081600081518110611b9857611b9761313d565b5b602002602001019073ffffffffffffffffffffffffffffffffffffffff16908173ffffffffffffffffffffffffffffffffffffffff16815250507f000000000000000000000000000000000000000000000000000000000000000073ffffffffffffffffffffffffffffffffffffffff1663ad5c46486040518163ffffffff1660e01b8152600401602060405180830381865afa158015611c3d573d6000803e3d6000fd5b505050506040513d601f19601f82011682018060405250810190611c619190613181565b81600181518110611c7557611c7461313d565b5b602002602001019073ffffffffffffffffffffffffffffffffffffffff16908173ffffffffffffffffffffffffffffffffffffffff1681525050611cda307f000000000000000000000000000000000000000000000000000000000000000084611135565b7f000000000000000000000000000000000000000000000000000000000000000073ffffffffffffffffffffffffffffffffffffffff1663791ac9478360008430426040518663ffffffff1660e01b8152600401611d3c9594939291906132a7565b600060405180830381600087803b158015611d5657600080fd5b505af1158015611d6a573d6000803e3d6000fd5b505050505060006014806101000a81548160ff02191690831515021790555050565b600073ffffffffffffffffffffffffffffffffffffffff168373ffffffffffffffffffffffffffffffffffffffff1603611dfb576040517f08c379a0000000000000000000000000000000000000000000000000000000008152600401611df290612d63565b60405180910390fd5b600073ffffffffffffffffffffffffffffffffffffffff168273ffffffffffffffffffffffffffffffffffffffff1603611e6a576040517f08c379a0000000000000000000000000000000000000000000000000000000008152600401611e6190612df5565b60405180910390fd5b60008060008573ffffffffffffffffffffffffffffffffffffffff1673ffffffffffffffffffffffffffffffffffffffff16815260200190815260200160002054905081811015611ef0576040517f08c379a0000000000000000000000000000000000000000000000000000000008152600401611ee790612e87565b60405180910390fd5b8181036000808673ffffffffffffffffffffffffffffffffffffffff1673ffffffffffffffffffffffffffffffffffffffff16815260200190815260200160002081905550816000808573ffffffffffffffffffffffffffffffffffffffff1673ffffffffffffffffffffffffffffffffffffffff168152602001908152602001600020600082825401925050819055508273ffffffffffffffffffffffffffffffffffffffff168473ffffffffffffffffffffffffffffffffffffffff167fddf252ad1be2c89b69c2b068fc378daa952ba7f163c4a11628f55a4df523b3ef84604051611fde9190612390565b60405180910390a350505050565b60016014806101000a81548160ff021916908315150217905550612031307f000000000000000000000000000000000000000000000000000000000000000084611135565b7f000000000000000000000000000000000000000000000000000000000000000073ffffffffffffffffffffffffffffffffffffffff1663f305d719823085600080600e60009054906101000a900473ffffffffffffffffffffffffffffffffffffffff16426040518863ffffffff1660e01b81526004016120b896959493929190613301565b60606040518083038185885af11580156120d6573d6000803e3d6000fd5b50505050506040513d601f19601f820116820180604052508101906120fb9190613377565b50505060006014806101000a81548160ff0219169083151502179055505050565b600073ffffffffffffffffffffffffffffffffffffffff82169050919050565b60006121478261211c565b9050919050565b6121578161213c565b82525050565b6000602082019050612172600083018461214e565b92915050565b600081519050919050565b600082825260208201905092915050565b60005b838110156121b2578082015181840152602081019050612197565b60008484015250505050565b6000601f19601f8301169050919050565b60006121da82612178565b6121e48185612183565b93506121f4818560208601612194565b6121fd816121be565b840191505092915050565b6000602082019050818103600083015261222281846121cf565b905092915050565b600080fd5b6122388161213c565b811461224357600080fd5b50565b6000813590506122558161222f565b92915050565b6000819050919050565b61226e8161225b565b811461227957600080fd5b50565b60008135905061228b81612265565b92915050565b600080604083850312156122a8576122a761222a565b5b60006122b685828601612246565b92505060206122c78582860161227c565b9150509250929050565b60008115159050919050565b6122e6816122d1565b82525050565b600060208201905061230160008301846122dd565b92915050565b6000819050919050565b600061232c6123276123228461211c565b612307565b61211c565b9050919050565b600061233e82612311565b9050919050565b600061235082612333565b9050919050565b61236081612345565b82525050565b600060208201905061237b6000830184612357565b92915050565b61238a8161225b565b82525050565b60006020820190506123a56000830184612381565b92915050565b6000806000606084860312156123c4576123c361222a565b5b60006123d286828701612246565b93505060206123e386828701612246565b92505060406123f48682870161227c565b9150509250925092565b600080604083850312156124155761241461222a565b5b60006124238582860161227c565b92505060206124348582860161227c565b9150509250929050565b600060ff82169050919050565b6124548161243e565b82525050565b600060208201905061246f600083018461244b565b92915050565b60006020828403121561248b5761248a61222a565b5b60006124998482850161227c565b91505092915050565b6000602082840312156124b8576124b761222a565b5b60006124c684828501612246565b91505092915050565b600080604083850312156124e6576124e561222a565b5b60006124f485828601612246565b925050602061250585828601612246565b9150509250929050565b612518816122d1565b811461252357600080fd5b50565b6000813590506125358161250f565b92915050565b600080604083850312156125525761255161222a565b5b600061256085828601612246565b925050602061257185828601612526565b9150509250929050565b7f4e487b7100000000000000000000000000000000000000000000000000000000600052602260045260246000fd5b600060028204905060018216806125c257607f821691505b6020821081036125d5576125d461257b565b5b50919050565b7f4e487b7100000000000000000000000000000000000000000000000000000000600052601260045260246000fd5b7f4e487b7100000000000000000000000000000000000000000000000000000000600052601160045260246000fd5b60006126448261225b565b915061264f8361225b565b92508261265f5761265e6125db565b5b828204905092915050565b7f43616e6e6f74206c6971756964617465206d6f7265207468616e203225206f6660008201527f2074686520737570706c79206174206f6e636521000000000000000000000000602082015250565b60006126c6603483612183565b91506126d18261266a565b604082019050919050565b600060208201905081810360008301526126f5816126b9565b9050919050565b60008160011c9050919050565b6000808291508390505b60018511156127535780860481111561272f5761272e61260a565b5b600185161561273e5780820291505b808102905061274c856126fc565b9450612713565b94509492505050565b60008261276c5760019050612828565b8161277a5760009050612828565b8160018114612790576002811461279a576127c9565b6001915050612828565b60ff8411156127ac576127ab61260a565b5b8360020a9150848211156127c3576127c261260a565b5b50612828565b5060208310610133831016604e8410600b84101617156127fe5782820a9050838111156127f9576127f861260a565b5b612828565b61280b8484846001612709565b925090508184048111156128225761282161260a565b5b81810290505b9392505050565b600061283a8261225b565b91506128458361243e565b92506128727fffffffffffffffffffffffffffffffffffffffffffffffffffffffffffffffff848461275c565b905092915050565b60006128858261225b565b91506128908361225b565b925082820261289e8161225b565b915082820484148315176128b5576128b461260a565b5b5092915050565b60006128c78261225b565b91506128d28361225b565b92508282019050808211156128ea576128e961260a565b5b92915050565b7f45524332303a2064656372656173656420616c6c6f77616e63652062656c6f7760008201527f207a65726f000000000000000000000000000000000000000000000000000000602082015250565b600061294c602583612183565b9150612957826128f0565b604082019050919050565b6000602082019050818103600083015261297b8161293f565b9050919050565b7f45524332303a20746f74616c20746178206d757374206e6f742062652067726560008201527f61746572207468616e2031302500000000000000000000000000000000000000602082015250565b60006129de602d83612183565b91506129e982612982565b604082019050919050565b60006020820190508181036000830152612a0d816129d1565b9050919050565b7f4c5020506169722063616e6e6f742062652074686520446561642077616c6c6560008201527f742c206f72203021000000000000000000000000000000000000000000000000602082015250565b6000612a70602883612183565b9150612a7b82612a14565b604082019050919050565b60006020820190508181036000830152612a9f81612a63565b9050919050565b6000604082019050612abb600083018561214e565b612ac860208301846122dd565b9392505050565b7f4f776e61626c653a206e6577206f776e657220697320746865207a65726f206160008201527f6464726573730000000000000000000000000000000000000000000000000000602082015250565b6000612b2b602683612183565b9150612b3682612acf565b604082019050919050565b60006020820190508181036000830152612b5a81612b1e565b9050919050565b7f45524332303a20617070726f76652066726f6d20746865207a65726f2061646460008201527f7265737300000000000000000000000000000000000000000000000000000000602082015250565b6000612bbd602483612183565b9150612bc882612b61565b604082019050919050565b60006020820190508181036000830152612bec81612bb0565b9050919050565b7f45524332303a20617070726f766520746f20746865207a65726f20616464726560008201527f7373000000000000000000000000000000000000000000000000000000000000602082015250565b6000612c4f602283612183565b9150612c5a82612bf3565b604082019050919050565b60006020820190508181036000830152612c7e81612c42565b9050919050565b7f45524332303a20696e73756666696369656e7420616c6c6f77616e6365000000600082015250565b6000612cbb601d83612183565b9150612cc682612c85565b602082019050919050565b60006020820190508181036000830152612cea81612cae565b9050919050565b7f45524332303a207472616e736665722066726f6d20746865207a65726f20616460008201527f6472657373000000000000000000000000000000000000000000000000000000602082015250565b6000612d4d602583612183565b9150612d5882612cf1565b604082019050919050565b60006020820190508181036000830152612d7c81612d40565b9050919050565b7f45524332303a207472616e7366657220746f20746865207a65726f206164647260008201527f6573730000000000000000000000000000000000000000000000000000000000602082015250565b6000612ddf602383612183565b9150612dea82612d83565b604082019050919050565b60006020820190508181036000830152612e0e81612dd2565b9050919050565b7f45524332303a207472616e7366657220616d6f756e742065786365656473206260008201527f616c616e63650000000000000000000000000000000000000000000000000000602082015250565b6000612e71602683612183565b9150612e7c82612e15565b604082019050919050565b60006020820190508181036000830152612ea081612e64565b9050919050565b6000612eb28261225b565b9150612ebd8361225b565b9250828203905081811115612ed557612ed461260a565b5b92915050565b7f4661696c656420746f2073656e64204554480000000000000000000000000000600082015250565b6000612f11601283612183565b9150612f1c82612edb565b602082019050919050565b60006020820190508181036000830152612f4081612f04565b9050919050565b7f45524332303a207472616e7366657220616d6f756e742065786365656473207460008201527f6865206d6178207472616e73616374696f6e20616d6f756e7400000000000000602082015250565b6000612fa3603983612183565b9150612fae82612f47565b604082019050919050565b60006020820190508181036000830152612fd281612f96565b9050919050565b7f45524332303a2062616c616e636520616d6f756e74206578636565646564206d60008201527f61782077616c6c657420616d6f756e74206c696d697400000000000000000000602082015250565b6000613035603683612183565b915061304082612fd9565b604082019050919050565b6000602082019050818103600083015261306481613028565b9050919050565b7f4f776e61626c653a2063616c6c6572206973206e6f7420746865206f776e6572600082015250565b60006130a1602083612183565b91506130ac8261306b565b602082019050919050565b600060208201905081810360008301526130d081613094565b9050919050565b60006060820190506130ec6000830186612381565b6130f96020830185612381565b6131066040830184612381565b949350505050565b7f4e487b7100000000000000000000000000000000000000000000000000000000600052604160045260246000fd5b7f4e487b7100000000000000000000000000000000000000000000000000000000600052603260045260246000fd5b60008151905061317b8161222f565b92915050565b6000602082840312156131975761319661222a565b5b60006131a58482850161316c565b91505092915050565b6000819050919050565b60006131d36131ce6131c9846131ae565b612307565b61225b565b9050919050565b6131e3816131b8565b82525050565b600081519050919050565b600082825260208201905092915050565b6000819050602082019050919050565b61321e8161213c565b82525050565b60006132308383613215565b60208301905092915050565b6000602082019050919050565b6000613254826131e9565b61325e81856131f4565b935061326983613205565b8060005b8381101561329a5781516132818882613224565b975061328c8361323c565b92505060018101905061326d565b5085935050505092915050565b600060a0820190506132bc6000830188612381565b6132c960208301876131da565b81810360408301526132db8186613249565b90506132ea606083018561214e565b6132f76080830184612381565b9695505050505050565b600060c082019050613316600083018961214e565b6133236020830188612381565b61333060408301876131da565b61333d60608301866131da565b61334a608083018561214e565b61335760a0830184612381565b979650505050505050565b60008151905061337181612265565b92915050565b6000806000606084860312156133905761338f61222a565b5b600061339e86828701613362565b93505060206133af86828701613362565b92505060406133c086828701613362565b915050925092509256fea26469706673582212209804aadc98c3b710a7c3d40dc2e6c555c0f1f7f1b21971f2d97cd0f9b485ea7e64736f6c63430008110033",
  "linkReferences": {},
  "deployedLinkReferences": {}
}