{
  "_format": "hh-sol-artifact-1",
  "contractName": "ImgnAI",
  "sourceName": "contracts/ImgnAI.sol",
  "abi": [
    {
      "inputs": [],
      "stateMutability": "nonpayable",
      "type": "constructor"
    },
    {
      "anonymous": false,
      "inputs": [
        {
          "indexed": false,
          "internalType": "string",
          "name": "tg_user_chan",
          "type": "string"
        },
        {
          "indexed": false,
          "internalType": "bool",
          "name": "_isChannel",
          "type": "bool"
        },
        {
          "indexed": false,
          "internalType": "bool",
          "name": "_isUnlocked",
          "type": "bool"
        },
        {
          "indexed": false,
          "internalType": "uint256",
          "name": "_unlockBlock",
          "type": "uint256"
        },
        {
          "indexed": false,
          "internalType": "uint256",
          "name": "_amtPaid",
          "type": "uint256"
        }
      ],
      "name": "AdminModifierSet",
      "type": "event"
    },
    {
      "anonymous": false,
      "inputs": [
        {
          "indexed": true,
          "internalType": "address",
          "name": "owner",
          "type": "address"
        },
        {
          "indexed": true,
          "internalType": "address",
          "name": "spender",
          "type": "address"
        },
        {
          "indexed": false,
          "internalType": "uint256",
          "name": "value",
          "type": "uint256"
        }
      ],
      "name": "Approval",
      "type": "event"
    },
    {
      "anonymous": false,
      "inputs": [
        {
          "indexed": false,
          "internalType": "string",
          "name": "tg_channel",
          "type": "string"
        },
        {
          "indexed": false,
          "internalType": "uint256",
          "name": "unlockTime",
          "type": "uint256"
        }
      ],
      "name": "ChannelUnlocked",
      "type": "event"
    },
    {
      "anonymous": false,
      "inputs": [
        {
          "indexed": false,
          "internalType": "bool",
          "name": "_isEth",
          "type": "bool"
        },
        {
          "indexed": false,
          "internalType": "bool",
          "name": "_isChannel",
          "type": "bool"
        },
        {
          "indexed": false,
          "internalType": "uint256",
          "name": "_cost",
          "type": "uint256"
        }
      ],
      "name": "CostUpdated",
      "type": "event"
    },
    {
      "anonymous": false,
      "inputs": [
        {
          "indexed": false,
          "internalType": "address",
          "name": "_address",
          "type": "address"
        },
        {
          "indexed": false,
          "internalType": "bool",
          "name": "_status",
          "type": "bool"
        }
      ],
      "name": "ExcludedFromFeeUpdated",
      "type": "event"
    },
    {
      "anonymous": false,
      "inputs": [
        {
          "indexed": true,
          "internalType": "address",
          "name": "previousOwner",
          "type": "address"
        },
        {
          "indexed": true,
          "internalType": "address",
          "name": "newOwner",
          "type": "address"
        }
      ],
      "name": "OwnershipTransferred",
      "type": "event"
    },
    {
      "anonymous": false,
      "inputs": [
        {
          "indexed": false,
          "internalType": "address",
          "name": "_address",
          "type": "address"
        }
      ],
      "name": "PairUpdated",
      "type": "event"
    },
    {
      "anonymous": false,
      "inputs": [
        {
          "indexed": false,
          "internalType": "uint256",
          "name": "tokensSwapped",
          "type": "uint256"
        },
        {
          "indexed": false,
          "internalType": "uint256",
          "name": "ethReceived",
          "type": "uint256"
        },
        {
          "indexed": false,
          "internalType": "uint256",
          "name": "tokensIntoLiqudity",
          "type": "uint256"
        }
      ],
      "name": "SwapAndLiquify",
      "type": "event"
    },
    {
      "anonymous": false,
      "inputs": [
        {
          "indexed": true,
          "internalType": "address",
          "name": "from",
          "type": "address"
        },
        {
          "indexed": true,
          "internalType": "address",
          "name": "to",
          "type": "address"
        },
        {
          "indexed": false,
          "internalType": "uint256",
          "name": "value",
          "type": "uint256"
        }
      ],
      "name": "Transfer",
      "type": "event"
    },
    {
      "anonymous": false,
      "inputs": [
        {
          "indexed": false,
          "internalType": "string",
          "name": "tg_username",
          "type": "string"
        },
        {
          "indexed": false,
          "internalType": "uint256",
          "name": "unlockTime",
          "type": "uint256"
        }
      ],
      "name": "UserUnlocked",
      "type": "event"
    },
    {
      "inputs": [],
      "name": "DEAD",
      "outputs": [
        {
          "internalType": "address",
          "name": "",
          "type": "address"
        }
      ],
      "stateMutability": "view",
      "type": "function"
    },
    {
      "inputs": [
        {
          "internalType": "address",
          "name": "",
          "type": "address"
        }
      ],
      "name": "_isExcludedFromFee",
      "outputs": [
        {
          "internalType": "bool",
          "name": "",
          "type": "bool"
        }
      ],
      "stateMutability": "view",
      "type": "function"
    },
    {
      "inputs": [],
      "name": "_marketingReserves",
      "outputs": [
        {
          "internalType": "uint256",
          "name": "",
          "type": "uint256"
        }
      ],
      "stateMutability": "view",
      "type": "function"
    },
    {
      "inputs": [
        {
          "internalType": "address",
          "name": "owner",
          "type": "address"
        },
        {
          "internalType": "address",
          "name": "spender",
          "type": "address"
        }
      ],
      "name": "allowance",
      "outputs": [
        {
          "internalType": "uint256",
          "name": "",
          "type": "uint256"
        }
      ],
      "stateMutability": "view",
      "type": "function"
    },
    {
      "inputs": [
        {
          "internalType": "address",
          "name": "spender",
          "type": "address"
        },
        {
          "internalType": "uint256",
          "name": "amount",
          "type": "uint256"
        }
      ],
      "name": "approve",
      "outputs": [
        {
          "internalType": "bool",
          "name": "",
          "type": "bool"
        }
      ],
      "stateMutability": "nonpayable",
      "type": "function"
    },
    {
      "inputs": [
        {
          "internalType": "address",
          "name": "account",
          "type": "address"
        }
      ],
      "name": "balanceOf",
      "outputs": [
        {
          "internalType": "uint256",
          "name": "",
          "type": "uint256"
        }
      ],
      "stateMutability": "view",
      "type": "function"
    },
    {
      "inputs": [
        {
          "internalType": "address",
          "name": "newWallet",
          "type": "address"
        }
      ],
      "name": "changeMarketingWallet",
      "outputs": [
        {
          "internalType": "bool",
          "name": "",
          "type": "bool"
        }
      ],
      "stateMutability": "nonpayable",
      "type": "function"
    },
    {
      "inputs": [
        {
          "internalType": "uint256",
          "name": "_maxTxAmount",
          "type": "uint256"
        }
      ],
      "name": "changeMaxTxAmount",
      "outputs": [
        {
          "internalType": "bool",
          "name": "",
          "type": "bool"
        }
      ],
      "stateMutability": "nonpayable",
      "type": "function"
    },
    {
      "inputs": [
        {
          "internalType": "uint256",
          "name": "_maxWalletAmount",
          "type": "uint256"
        }
      ],
      "name": "changeMaxWalletAmount",
      "outputs": [
        {
          "internalType": "bool",
          "name": "",
          "type": "bool"
        }
      ],
      "stateMutability": "nonpayable",
      "type": "function"
    },
    {
      "inputs": [
        {
          "internalType": "uint256",
          "name": "_numTokensSellToAddToLiquidity",
          "type": "uint256"
        },
        {
          "internalType": "uint256",
          "name": "_numTokensSellToAddToETH",
          "type": "uint256"
        }
      ],
      "name": "changeSwapThresholds",
      "outputs": [
        {
          "internalType": "bool",
          "name": "",
          "type": "bool"
        }
      ],
      "stateMutability": "nonpayable",
      "type": "function"
    },
    {
      "inputs": [
        {
          "internalType": "uint256",
          "name": "_taxForLiquidity",
          "type": "uint256"
        },
        {
          "internalType": "uint256",
          "name": "_taxForMarketing",
          "type": "uint256"
        }
      ],
      "name": "changeTaxForLiquidityAndMarketing",
      "outputs": [
        {
          "internalType": "bool",
          "name": "",
          "type": "bool"
        }
      ],
      "stateMutability": "nonpayable",
      "type": "function"
    },
    {
      "inputs": [],
      "name": "channelCostEth",
      "outputs": [
        {
          "internalType": "uint256",
          "name": "",
          "type": "uint256"
        }
      ],
      "stateMutability": "view",
      "type": "function"
    },
    {
      "inputs": [],
      "name": "channelCostTokens",
      "outputs": [
        {
          "internalType": "uint256",
          "name": "",
          "type": "uint256"
        }
      ],
      "stateMutability": "view",
      "type": "function"
    },
    {
      "inputs": [],
      "name": "decimals",
      "outputs": [
        {
          "internalType": "uint8",
          "name": "",
          "type": "uint8"
        }
      ],
      "stateMutability": "view",
      "type": "function"
    },
    {
      "inputs": [
        {
          "internalType": "address",
          "name": "spender",
          "type": "address"
        },
        {
          "internalType": "uint256",
          "name": "subtractedValue",
          "type": "uint256"
        }
      ],
      "name": "decreaseAllowance",
      "outputs": [
        {
          "internalType": "bool",
          "name": "",
          "type": "bool"
        }
      ],
      "stateMutability": "nonpayable",
      "type": "function"
    },
    {
      "inputs": [
        {
          "internalType": "address",
          "name": "_address",
          "type": "address"
        },
        {
          "internalType": "bool",
          "name": "_status",
          "type": "bool"
        }
      ],
      "name": "excludeFromFee",
      "outputs": [],
      "stateMutability": "nonpayable",
      "type": "function"
    },
    {
      "inputs": [
        {
          "internalType": "string",
          "name": "tg_user_chan",
          "type": "string"
        },
        {
          "internalType": "bool",
          "name": "_isChannel",
          "type": "bool"
        }
      ],
      "name": "getAmtPaid",
      "outputs": [
        {
          "internalType": "uint256",
          "name": "",
          "type": "uint256"
        }
      ],
      "stateMutability": "view",
      "type": "function"
    },
    {
      "inputs": [
        {
          "internalType": "string",
          "name": "tg_user_chan",
          "type": "string"
        },
        {
          "internalType": "bool",
          "name": "_isChannel",
          "type": "bool"
        }
      ],
      "name": "getUnlockBlock",
      "outputs": [
        {
          "internalType": "uint256",
          "name": "",
          "type": "uint256"
        }
      ],
      "stateMutability": "view",
      "type": "function"
    },
    {
      "inputs": [
        {
          "internalType": "address",
          "name": "spender",
          "type": "address"
        },
        {
          "internalType": "uint256",
          "name": "addedValue",
          "type": "uint256"
        }
      ],
      "name": "increaseAllowance",
      "outputs": [
        {
          "internalType": "bool",
          "name": "",
          "type": "bool"
        }
      ],
      "stateMutability": "nonpayable",
      "type": "function"
    },
    {
      "inputs": [
        {
          "internalType": "string",
          "name": "tg_user_chan",
          "type": "string"
        },
        {
          "internalType": "bool",
          "name": "_isChannel",
          "type": "bool"
        }
      ],
      "name": "isUnlocked",
      "outputs": [
        {
          "internalType": "bool",
          "name": "",
          "type": "bool"
        }
      ],
      "stateMutability": "view",
      "type": "function"
    },
    {
      "inputs": [],
      "name": "marketingWallet",
      "outputs": [
        {
          "internalType": "address",
          "name": "",
          "type": "address"
        }
      ],
      "stateMutability": "view",
      "type": "function"
    },
    {
      "inputs": [],
      "name": "maxTxAmount",
      "outputs": [
        {
          "internalType": "uint256",
          "name": "",
          "type": "uint256"
        }
      ],
      "stateMutability": "view",
      "type": "function"
    },
    {
      "inputs": [],
      "name": "maxWalletAmount",
      "outputs": [
        {
          "internalType": "uint256",
          "name": "",
          "type": "uint256"
        }
      ],
      "stateMutability": "view",
      "type": "function"
    },
    {
      "inputs": [],
      "name": "name",
      "outputs": [
        {
          "internalType": "string",
          "name": "",
          "type": "string"
        }
      ],
      "stateMutability": "view",
      "type": "function"
    },
    {
      "inputs": [],
      "name": "numTokensSellToAddToETH",
      "outputs": [
        {
          "internalType": "uint256",
          "name": "",
          "type": "uint256"
        }
      ],
      "stateMutability": "view",
      "type": "function"
    },
    {
      "inputs": [],
      "name": "numTokensSellToAddToLiquidity",
      "outputs": [
        {
          "internalType": "uint256",
          "name": "",
          "type": "uint256"
        }
      ],
      "stateMutability": "view",
      "type": "function"
    },
    {
      "inputs": [],
      "name": "owner",
      "outputs": [
        {
          "internalType": "address",
          "name": "",
          "type": "address"
        }
      ],
      "stateMutability": "view",
      "type": "function"
    },
    {
      "inputs": [],
      "name": "postLaunch",
      "outputs": [],
      "stateMutability": "nonpayable",
      "type": "function"
    },
    {
      "inputs": [],
      "name": "renounceOwnership",
      "outputs": [],
      "stateMutability": "nonpayable",
      "type": "function"
    },
    {
      "inputs": [
        {
          "internalType": "bool",
          "name": "_isEth",
          "type": "bool"
        },
        {
          "internalType": "bool",
          "name": "_isChannel",
          "type": "bool"
        },
        {
          "internalType": "uint256",
          "name": "_cost",
          "type": "uint256"
        }
      ],
      "name": "setCost",
      "outputs": [],
      "stateMutability": "nonpayable",
      "type": "function"
    },
    {
      "inputs": [
        {
          "internalType": "string",
          "name": "tg_user_chan",
          "type": "string"
        },
        {
          "internalType": "bool",
          "name": "_isChannel",
          "type": "bool"
        },
        {
          "internalType": "bool",
          "name": "_isUnlocked",
          "type": "bool"
        },
        {
          "internalType": "uint256",
          "name": "_unlockBlock",
          "type": "uint256"
        },
        {
          "internalType": "uint256",
          "name": "_amtPaid",
          "type": "uint256"
        }
      ],
      "name": "setUnlockStatus",
      "outputs": [],
      "stateMutability": "nonpayable",
      "type": "function"
    },
    {
      "inputs": [],
      "name": "symbol",
      "outputs": [
        {
          "internalType": "string",
          "name": "",
          "type": "string"
        }
      ],
      "stateMutability": "view",
      "type": "function"
    },
    {
      "inputs": [],
      "name": "taxForLiquidity",
      "outputs": [
        {
          "internalType": "uint256",
          "name": "",
          "type": "uint256"
        }
      ],
      "stateMutability": "view",
      "type": "function"
    },
    {
      "inputs": [],
      "name": "taxForMarketing",
      "outputs": [
        {
          "internalType": "uint256",
          "name": "",
          "type": "uint256"
        }
      ],
      "stateMutability": "view",
      "type": "function"
    },
    {
      "inputs": [],
      "name": "totalSupply",
      "outputs": [
        {
          "internalType": "uint256",
          "name": "",
          "type": "uint256"
        }
      ],
      "stateMutability": "view",
      "type": "function"
    },
    {
      "inputs": [
        {
          "internalType": "address",
          "name": "to",
          "type": "address"
        },
        {
          "internalType": "uint256",
          "name": "amount",
          "type": "uint256"
        }
      ],
      "name": "transfer",
      "outputs": [
        {
          "internalType": "bool",
          "name": "",
          "type": "bool"
        }
      ],
      "stateMutability": "nonpayable",
      "type": "function"
    },
    {
      "inputs": [
        {
          "internalType": "address",
          "name": "from",
          "type": "address"
        },
        {
          "internalType": "address",
          "name": "to",
          "type": "address"
        },
        {
          "internalType": "uint256",
          "name": "amount",
          "type": "uint256"
        }
      ],
      "name": "transferFrom",
      "outputs": [
        {
          "internalType": "bool",
          "name": "",
          "type": "bool"
        }
      ],
      "stateMutability": "nonpayable",
      "type": "function"
    },
    {
      "inputs": [
        {
          "internalType": "address",
          "name": "newOwner",
          "type": "address"
        }
      ],
      "name": "transferOwnership",
      "outputs": [],
      "stateMutability": "nonpayable",
      "type": "function"
    },
    {
      "inputs": [],
      "name": "uniswapV2Pair",
      "outputs": [
        {
          "internalType": "address",
          "name": "",
          "type": "address"
        }
      ],
      "stateMutability": "view",
      "type": "function"
    },
    {
      "inputs": [],
      "name": "uniswapV2Router",
      "outputs": [
        {
          "internalType": "contract IUniswapV2Router02",
          "name": "",
          "type": "address"
        }
      ],
      "stateMutability": "view",
      "type": "function"
    },
    {
      "inputs": [
        {
          "internalType": "string",
          "name": "tg_channel",
          "type": "string"
        }
      ],
      "name": "unlockChannel",
      "outputs": [],
      "stateMutability": "payable",
      "type": "function"
    },
    {
      "inputs": [
        {
          "internalType": "string",
          "name": "tg_username",
          "type": "string"
        }
      ],
      "name": "unlockUser",
      "outputs": [],
      "stateMutability": "payable",
      "type": "function"
    },
    {
      "inputs": [
        {
          "internalType": "string",
          "name": "",
          "type": "string"
        }
      ],
      "name": "unlockedChannels",
      "outputs": [
        {
          "internalType": "string",
          "name": "tgChannel",
          "type": "string"
        },
        {
          "internalType": "bool",
          "name": "unlocked",
          "type": "bool"
        },
        {
          "internalType": "uint256",
          "name": "unlockedAt",
          "type": "uint256"
        },
        {
          "internalType": "uint256",
          "name": "totalEthPaid",
          "type": "uint256"
        }
      ],
      "stateMutability": "view",
      "type": "function"
    },
    {
      "inputs": [
        {
          "internalType": "string",
          "name": "",
          "type": "string"
        }
      ],
      "name": "unlockedUsers",
      "outputs": [
        {
          "internalType": "string",
          "name": "tgUserName",
          "type": "string"
        },
        {
          "internalType": "bool",
          "name": "unlocked",
          "type": "bool"
        },
        {
          "internalType": "uint256",
          "name": "unlockedAt",
          "type": "uint256"
        },
        {
          "internalType": "uint256",
          "name": "totalEthPaid",
          "type": "uint256"
        }
      ],
      "stateMutability": "view",
      "type": "function"
    },
    {
      "inputs": [
        {
          "internalType": "address",
          "name": "_pair",
          "type": "address"
        }
      ],
      "name": "updatePair",
      "outputs": [],
      "stateMutability": "nonpayable",
      "type": "function"
    },
    {
      "inputs": [],
      "name": "userCostEth",
      "outputs": [
        {
          "internalType": "uint256",
          "name": "",
          "type": "uint256"
        }
      ],
      "stateMutability": "view",
      "type": "function"
    },
    {
      "inputs": [],
      "name": "userCostTokens",
      "outputs": [
        {
          "internalType": "uint256",
          "name": "",
          "type": "uint256"
        }
      ],
      "stateMutability": "view",
      "type": "function"
    },
    {
      "stateMutability": "payable",
      "type": "receive"
    }
  ],
  "bytecode": "0x60a06040526040518060400160405280601381526020017f496d6167652047656e65726174696f6e20414900000000000000000000000000815250600690816200004a919062000c15565b506040518060400160405280600481526020017f49474149000000000000000000000000000000000000000000000000000000008152506007908162000091919062000c15565b506009600860006101000a81548160ff021916908360ff160217905550633b9aca00600955602f600a55602f600b55600860009054906101000a900460ff16600a620000de919062000e8c565b62989681620000ee919062000edd565b600c55600860009054906101000a900460ff16600a6200010f919062000e8c565b629896816200011f919062000edd565b600d55734db71f3246a0c46dae0fd1d55e36dd12262367a1600e60006101000a81548173ffffffffffffffffffffffffffffffffffffffff021916908373ffffffffffffffffffffffffffffffffffffffff160217905550739d1a9cdc740aed6b1336b05ca06b58f3dffc1592600f60006101000a81548173ffffffffffffffffffffffffffffffffffffffff021916908373ffffffffffffffffffffffffffffffffffffffff1602179055506000601055600860009054906101000a900460ff16600a620001ef919062000e8c565b62030d40620001ff919062000edd565b601255600860009054906101000a900460ff16600a62000220919062000e8c565b620186a062000230919062000edd565b601355662386f26fc10000601655600860009054906101000a900460ff16600a6200025c919062000e8c565b6127106200026b919062000edd565b60175567016345785d8a0000601855600860009054906101000a900460ff16600a62000298919062000e8c565b620186a0620002a8919062000edd565b601955348015620002b857600080fd5b5060068054620002c89062000a04565b80601f0160208091040260200160405190810160405280929190818152602001828054620002f69062000a04565b8015620003475780601f106200031b5761010080835404028352916020019162000347565b820191906000526020600020905b8154815290600101906020018083116200032957829003601f168201915b5050505050600780546200035b9062000a04565b80601f0160208091040260200160405190810160405280929190818152602001828054620003899062000a04565b8015620003da5780601f10620003ae57610100808354040283529160200191620003da565b820191906000526020600020905b815481529060010190602001808311620003bc57829003601f168201915b50505050508160039081620003f0919062000c15565b50806004908162000402919062000c15565b50505062000425620004196200078860201b60201c565b6200079060201b60201c565b6200046333600860009054906101000a900460ff16600a62000448919062000e8c565b60095462000457919062000edd565b6200085660201b60201c565b6000737a250d5630b4cf539739df2c5dacb4c659f2488d90508073ffffffffffffffffffffffffffffffffffffffff1663c45a01556040518163ffffffff1660e01b8152600401602060405180830381865afa158015620004c8573d6000803e3d6000fd5b505050506040513d601f19601f82011682018060405250810190620004ee919062000f92565b73ffffffffffffffffffffffffffffffffffffffff1663c9c65396308373ffffffffffffffffffffffffffffffffffffffff1663ad5c46486040518163ffffffff1660e01b8152600401602060405180830381865afa15801562000556573d6000803e3d6000fd5b505050506040513d601f19601f820116820180604052508101906200057c919062000f92565b6040518363ffffffff1660e01b81526004016200059b92919062000fd5565b6020604051808303816000875af1158015620005bb573d6000803e3d6000fd5b505050506040513d601f19601f82011682018060405250810190620005e1919062000f92565b601a60006101000a81548173ffffffffffffffffffffffffffffffffffffffff021916908373ffffffffffffffffffffffffffffffffffffffff1602179055508073ffffffffffffffffffffffffffffffffffffffff1660808173ffffffffffffffffffffffffffffffffffffffff168152505060016011600060805173ffffffffffffffffffffffffffffffffffffffff1673ffffffffffffffffffffffffffffffffffffffff16815260200190815260200160002060006101000a81548160ff0219169083151502179055506001601160003373ffffffffffffffffffffffffffffffffffffffff1673ffffffffffffffffffffffffffffffffffffffff16815260200190815260200160002060006101000a81548160ff021916908315150217905550600160116000600e60009054906101000a900473ffffffffffffffffffffffffffffffffffffffff1673ffffffffffffffffffffffffffffffffffffffff1673ffffffffffffffffffffffffffffffffffffffff16815260200190815260200160002060006101000a81548160ff02191690831515021790555050620010ee565b600033905090565b6000600560009054906101000a900473ffffffffffffffffffffffffffffffffffffffff16905081600560006101000a81548173ffffffffffffffffffffffffffffffffffffffff021916908373ffffffffffffffffffffffffffffffffffffffff1602179055508173ffffffffffffffffffffffffffffffffffffffff168173ffffffffffffffffffffffffffffffffffffffff167f8be0079c531659141344cd1fd0a4f28419497f9722a3daafe3b4186f6b6457e060405160405180910390a35050565b600073ffffffffffffffffffffffffffffffffffffffff168273ffffffffffffffffffffffffffffffffffffffff1603620008c8576040517f08c379a0000000000000000000000000000000000000000000000000000000008152600401620008bf9062001063565b60405180910390fd5b8060026000828254620008dc919062001085565b92505081905550806000808473ffffffffffffffffffffffffffffffffffffffff1673ffffffffffffffffffffffffffffffffffffffff168152602001908152602001600020600082825401925050819055508173ffffffffffffffffffffffffffffffffffffffff16600073ffffffffffffffffffffffffffffffffffffffff167fddf252ad1be2c89b69c2b068fc378daa952ba7f163c4a11628f55a4df523b3ef836040516200098f9190620010d1565b60405180910390a35050565b600081519050919050565b7f4e487b7100000000000000000000000000000000000000000000000000000000600052604160045260246000fd5b7f4e487b7100000000000000000000000000000000000000000000000000000000600052602260045260246000fd5b6000600282049050600182168062000a1d57607f821691505b60208210810362000a335762000a32620009d5565b5b50919050565b60008190508160005260206000209050919050565b60006020601f8301049050919050565b600082821b905092915050565b60006008830262000a9d7fffffffffffffffffffffffffffffffffffffffffffffffffffffffffffffffff8262000a5e565b62000aa9868362000a5e565b95508019841693508086168417925050509392505050565b6000819050919050565b6000819050919050565b600062000af662000af062000aea8462000ac1565b62000acb565b62000ac1565b9050919050565b6000819050919050565b62000b128362000ad5565b62000b2a62000b218262000afd565b84845462000a6b565b825550505050565b600090565b62000b4162000b32565b62000b4e81848462000b07565b505050565b5b8181101562000b765762000b6a60008262000b37565b60018101905062000b54565b5050565b601f82111562000bc55762000b8f8162000a39565b62000b9a8462000a4e565b8101602085101562000baa578190505b62000bc262000bb98562000a4e565b83018262000b53565b50505b505050565b600082821c905092915050565b600062000bea6000198460080262000bca565b1980831691505092915050565b600062000c05838362000bd7565b9150826002028217905092915050565b62000c20826200099b565b67ffffffffffffffff81111562000c3c5762000c3b620009a6565b5b62000c48825462000a04565b62000c5582828562000b7a565b600060209050601f83116001811462000c8d576000841562000c78578287015190505b62000c84858262000bf7565b86555062000cf4565b601f19841662000c9d8662000a39565b60005b8281101562000cc75784890151825560018201915060208501945060208101905062000ca0565b8683101562000ce7578489015162000ce3601f89168262000bd7565b8355505b6001600288020188555050505b505050505050565b7f4e487b7100000000000000000000000000000000000000000000000000000000600052601160045260246000fd5b60008160011c9050919050565b6000808291508390505b600185111562000d8a5780860481111562000d625762000d6162000cfc565b5b600185161562000d725780820291505b808102905062000d828562000d2b565b945062000d42565b94509492505050565b60008262000da5576001905062000e78565b8162000db5576000905062000e78565b816001811462000dce576002811462000dd95762000e0f565b600191505062000e78565b60ff84111562000dee5762000ded62000cfc565b5b8360020a91508482111562000e085762000e0762000cfc565b5b5062000e78565b5060208310610133831016604e8410600b841016171562000e495782820a90508381111562000e435762000e4262000cfc565b5b62000e78565b62000e58848484600162000d38565b9250905081840481111562000e725762000e7162000cfc565b5b81810290505b9392505050565b600060ff82169050919050565b600062000e998262000ac1565b915062000ea68362000e7f565b925062000ed57fffffffffffffffffffffffffffffffffffffffffffffffffffffffffffffffff848462000d93565b905092915050565b600062000eea8262000ac1565b915062000ef78362000ac1565b925082820262000f078162000ac1565b9150828204841483151762000f215762000f2062000cfc565b5b5092915050565b600080fd5b600073ffffffffffffffffffffffffffffffffffffffff82169050919050565b600062000f5a8262000f2d565b9050919050565b62000f6c8162000f4d565b811462000f7857600080fd5b50565b60008151905062000f8c8162000f61565b92915050565b60006020828403121562000fab5762000faa62000f28565b5b600062000fbb8482850162000f7b565b91505092915050565b62000fcf8162000f4d565b82525050565b600060408201905062000fec600083018562000fc4565b62000ffb602083018462000fc4565b9392505050565b600082825260208201905092915050565b7f45524332303a206d696e7420746f20746865207a65726f206164647265737300600082015250565b60006200104b601f8362001002565b9150620010588262001013565b602082019050919050565b600060208201905081810360008301526200107e816200103c565b9050919050565b6000620010928262000ac1565b91506200109f8362000ac1565b9250828201905080821115620010ba57620010b962000cfc565b5b92915050565b620010cb8162000ac1565b82525050565b6000602082019050620010e86000830184620010c0565b92915050565b6080516149106200112d60003960008181610e3a0152818161299101528181612a7201528181612a9901528181612dcb0152612df201526149106000f3fe60806040526004361061028c5760003560e01c8063768dc7101161015a578063af8af690116100c1578063df1d099e1161007a578063df1d099e14610a67578063df8408fe14610a92578063f1b2b3d914610abb578063f2fde38b14610af8578063f345bd8514610b21578063fbee93ba14610b4c57610293565b8063af8af6901461091d578063b5c78e8a1461095a578063bb85c6d114610997578063c0fdea57146109d4578063d12a7688146109ff578063dd62ed3e14610a2a57610293565b8063a2330d9711610113578063a2330d97146107f6578063a3996f7b14610836578063a457c2d71461084d578063a9059cbb1461088a578063aa4bde28146108c7578063ad16a0cf146108f257610293565b8063768dc710146106d05780637930ef691461070d57806381bfdcca146107385780638c0b5e22146107755780638da5cb5b146107a057806395d89b41146107cb57610293565b806330b63d80116101fe57806363cdf60f116101b757806363cdf60f146105ab578063677daa57146105eb57806370a0823114610628578063715018a61461066557806373c503b31461067c57806375f0a874146106a557610293565b806330b63d8014610473578063313ce567146104b057806339509351146104db57806349bd5a5e146105185780634fa74c4d14610543578063527ffabd1461058057610293565b80631694505e116102505780631694505e1461037257806316a7b1601461039d57806318160ddd146103b957806318bc47f6146103e45780631b56bbf91461040d57806323b872dd1461043657610293565b806303fd2a4514610298578063054dee0f146102c357806306fdde03146102ee578063095ea7b3146103195780630f1d7ad91461035657610293565b3661029357005b600080fd5b3480156102a457600080fd5b506102ad610b77565b6040516102ba9190612f1d565b60405180910390f35b3480156102cf57600080fd5b506102d8610b9d565b6040516102e59190612f51565b60405180910390f35b3480156102fa57600080fd5b50610303610ba3565b6040516103109190612ffc565b60405180910390f35b34801561032557600080fd5b50610340600480360381019061033b919061308a565b610c35565b60405161034d91906130e5565b60405180910390f35b610370600480360381019061036b9190613235565b610c58565b005b34801561037e57600080fd5b50610387610e38565b60405161039491906132dd565b60405180910390f35b6103b760048036038101906103b29190613235565b610e5c565b005b3480156103c557600080fd5b506103ce61103c565b6040516103db9190612f51565b60405180910390f35b3480156103f057600080fd5b5061040b60048036038101906104069190613324565b611046565b005b34801561041957600080fd5b50610434600480360381019061042f91906133bb565b6111bc565b005b34801561044257600080fd5b5061045d600480360381019061045891906133e8565b61133e565b60405161046a91906130e5565b60405180910390f35b34801561047f57600080fd5b5061049a6004803603810190610495919061343b565b61136d565b6040516104a791906130e5565b60405180910390f35b3480156104bc57600080fd5b506104c561147b565b6040516104d29190613497565b60405180910390f35b3480156104e757600080fd5b5061050260048036038101906104fd919061308a565b611484565b60405161050f91906130e5565b60405180910390f35b34801561052457600080fd5b5061052d6114bb565b60405161053a9190612f1d565b60405180910390f35b34801561054f57600080fd5b5061056a600480360381019061056591906134b2565b6114e1565b60405161057791906130e5565b60405180910390f35b34801561058c57600080fd5b50610595611557565b6040516105a29190612f51565b60405180910390f35b3480156105b757600080fd5b506105d260048036038101906105cd9190613235565b61155d565b6040516105e2949392919061350e565b60405180910390f35b3480156105f757600080fd5b50610612600480360381019061060d919061355a565b611638565b60405161061f91906130e5565b60405180910390f35b34801561063457600080fd5b5061064f600480360381019061064a91906133bb565b611652565b60405161065c9190612f51565b60405180910390f35b34801561067157600080fd5b5061067a61169a565b005b34801561068857600080fd5b506106a3600480360381019061069e9190613587565b6116ae565b005b3480156106b157600080fd5b506106ba611782565b6040516106c79190612f1d565b60405180910390f35b3480156106dc57600080fd5b506106f760048036038101906106f291906133bb565b6117a8565b60405161070491906130e5565b60405180910390f35b34801561071957600080fd5b506107226117c8565b60405161072f9190612f51565b60405180910390f35b34801561074457600080fd5b5061075f600480360381019061075a919061355a565b6117ce565b60405161076c91906130e5565b60405180910390f35b34801561078157600080fd5b5061078a6117e8565b6040516107979190612f51565b60405180910390f35b3480156107ac57600080fd5b506107b56117ee565b6040516107c29190612f1d565b60405180910390f35b3480156107d757600080fd5b506107e0611818565b6040516107ed9190612ffc565b60405180910390f35b34801561080257600080fd5b5061081d60048036038101906108189190613235565b6118aa565b60405161082d949392919061350e565b60405180910390f35b34801561084257600080fd5b5061084b611985565b005b34801561085957600080fd5b50610874600480360381019061086f919061308a565b6119ff565b60405161088191906130e5565b60405180910390f35b34801561089657600080fd5b506108b160048036038101906108ac919061308a565b611a76565b6040516108be91906130e5565b60405180910390f35b3480156108d357600080fd5b506108dc611a99565b6040516108e99190612f51565b60405180910390f35b3480156108fe57600080fd5b50610907611a9f565b6040516109149190612f51565b60405180910390f35b34801561092957600080fd5b50610944600480360381019061093f919061343b565b611aa5565b60405161095191906130e5565b60405180910390f35b34801561096657600080fd5b50610981600480360381019061097c91906134b2565b611b16565b60405161098e9190612f51565b60405180910390f35b3480156109a357600080fd5b506109be60048036038101906109b991906133bb565b611b72565b6040516109cb91906130e5565b60405180910390f35b3480156109e057600080fd5b506109e9611cc5565b6040516109f69190612f51565b60405180910390f35b348015610a0b57600080fd5b50610a14611ccb565b604051610a219190612f51565b60405180910390f35b348015610a3657600080fd5b50610a516004803603810190610a4c91906135da565b611cd1565b604051610a5e9190612f51565b60405180910390f35b348015610a7357600080fd5b50610a7c611d58565b604051610a899190612f51565b60405180910390f35b348015610a9e57600080fd5b50610ab96004803603810190610ab4919061361a565b611d5e565b005b348015610ac757600080fd5b50610ae26004803603810190610add91906134b2565b611dfa565b604051610aef9190612f51565b60405180910390f35b348015610b0457600080fd5b50610b1f6004803603810190610b1a91906133bb565b611e56565b005b348015610b2d57600080fd5b50610b36611ed9565b604051610b439190612f51565b60405180910390f35b348015610b5857600080fd5b50610b61611edf565b604051610b6e9190612f51565b60405180910390f35b600f60009054906101000a900473ffffffffffffffffffffffffffffffffffffffff1681565b60165481565b606060038054610bb290613689565b80601f0160208091040260200160405190810160405280929190818152602001828054610bde90613689565b8015610c2b5780601f10610c0057610100808354040283529160200191610c2b565b820191906000526020600020905b815481529060010190602001808311610c0e57829003601f168201915b5050505050905090565b600080610c40611ee5565b9050610c4d818585611eed565b600191505092915050565b601654341015610c9d576040517f08c379a0000000000000000000000000000000000000000000000000000000008152600401610c9490613706565b60405180910390fd5b6017543373ffffffffffffffffffffffffffffffffffffffff16311015610cf9576040517f08c379a0000000000000000000000000000000000000000000000000000000008152600401610cf090613772565b60405180910390fd5b3460106000828254610d0b91906137c1565b92505081905550610d4133600f60009054906101000a900473ffffffffffffffffffffffffffffffffffffffff166017546120b6565b604051806080016040528082815260200160011515815260200142815260200134601584604051610d729190613831565b908152602001604051809103902060030154610d8e91906137c1565b815250601582604051610da19190613831565b90815260200160405180910390206000820151816000019081610dc491906139ea565b5060208201518160010160006101000a81548160ff02191690831515021790555060408201518160020155606082015181600301559050507f8382dfeb92e23123a91d983e4f179a9fbe329ff91e14e11cd3c3b5252f1151228142604051610e2d929190613abc565b60405180910390a150565b7f000000000000000000000000000000000000000000000000000000000000000081565b601654341015610ea1576040517f08c379a0000000000000000000000000000000000000000000000000000000008152600401610e9890613706565b60405180910390fd5b6017543373ffffffffffffffffffffffffffffffffffffffff16311015610efd576040517f08c379a0000000000000000000000000000000000000000000000000000000008152600401610ef490613772565b60405180910390fd5b3460106000828254610f0f91906137c1565b92505081905550610f4533600f60009054906101000a900473ffffffffffffffffffffffffffffffffffffffff166017546120b6565b604051806080016040528082815260200160011515815260200142815260200134601484604051610f769190613831565b908152602001604051809103902060030154610f9291906137c1565b815250601482604051610fa59190613831565b90815260200160405180910390206000820151816000019081610fc891906139ea565b5060208201518160010160006101000a81548160ff02191690831515021790555060408201518160020155606082015181600301559050507f892c7b6af36dc1cd7c78d56ead1e536ddf81fe5688e6b3f631cdfadf7ad4c5088142604051611031929190613abc565b60405180910390a150565b6000600254905090565b61104e612646565b83156110e75760405180608001604052808681526020018415158152602001838152602001828152506015866040516110879190613831565b908152602001604051809103902060008201518160000190816110aa91906139ea565b5060208201518160010160006101000a81548160ff0219169083151502179055506040820151816002015560608201518160030155905050611176565b604051806080016040528086815260200184151581526020018381526020018281525060148660405161111a9190613831565b9081526020016040518091039020600082015181600001908161113d91906139ea565b5060208201518160010160006101000a81548160ff02191690831515021790555060408201518160020155606082015181600301559050505b7fc7da2a9b77928245e263afcf4e639fd44ae7d1970e45b7c6ff1a952442938caf85858585856040516111ad959493929190613aec565b60405180910390a15050505050565b6111c4612646565b600f60009054906101000a900473ffffffffffffffffffffffffffffffffffffffff1673ffffffffffffffffffffffffffffffffffffffff168173ffffffffffffffffffffffffffffffffffffffff1603611254576040517f08c379a000000000000000000000000000000000000000000000000000000000815260040161124b90613bb8565b60405180910390fd5b600073ffffffffffffffffffffffffffffffffffffffff168173ffffffffffffffffffffffffffffffffffffffff16036112c3576040517f08c379a00000000000000000000000000000000000000000000000000000000081526004016112ba90613bb8565b60405180910390fd5b80601a60006101000a81548173ffffffffffffffffffffffffffffffffffffffff021916908373ffffffffffffffffffffffffffffffffffffffff1602179055507f1d288f7aba265e8b154b112bbb631ceca5df5fe93a750b2fe042fd1cc826647f816040516113339190612f1d565b60405180910390a150565b600080611349611ee5565b90506113568582856126c4565b6113618585856120b6565b60019150509392505050565b6000611377612646565b60626009546113869190613c07565b83106113c7576040517f08c379a00000000000000000000000000000000000000000000000000000000081526004016113be90613caa565b60405180910390fd5b60626009546113d69190613c07565b8210611417576040517f08c379a000000000000000000000000000000000000000000000000000000000815260040161140e90613caa565b60405180910390fd5b600860009054906101000a900460ff16600a6114339190613dfd565b8361143e9190613e48565b601281905550600860009054906101000a900460ff16600a6114609190613dfd565b8261146b9190613e48565b6013819055506001905092915050565b60006009905090565b60008061148f611ee5565b90506114b08185856114a18589611cd1565b6114ab91906137c1565b611eed565b600191505092915050565b601a60009054906101000a900473ffffffffffffffffffffffffffffffffffffffff1681565b6000811561151f576015836040516114f99190613831565b908152602001604051809103902060010160009054906101000a900460ff169050611551565b60148360405161152f9190613831565b908152602001604051809103902060010160009054906101000a900460ff1690505b92915050565b600b5481565b60148180516020810182018051848252602083016020850120818352809550505050505060009150905080600001805461159690613689565b80601f01602080910402602001604051908101604052809291908181526020018280546115c290613689565b801561160f5780601f106115e45761010080835404028352916020019161160f565b820191906000526020600020905b8154815290600101906020018083116115f257829003601f168201915b5050505050908060010160009054906101000a900460ff16908060020154908060030154905084565b6000611642612646565b81600c8190555060019050919050565b60008060008373ffffffffffffffffffffffffffffffffffffffff1673ffffffffffffffffffffffffffffffffffffffff168152602001908152602001600020549050919050565b6116a2612646565b6116ac6000612750565b565b6116b6612646565b82156116db5781156116ce57806018819055506116d6565b806016819055505b611742565b811561171357600860009054906101000a900460ff16600a6116fd9190613dfd565b816117089190613e48565b601981905550611741565b600860009054906101000a900460ff16600a61172f9190613dfd565b8161173a9190613e48565b6017819055505b5b7fb87a29e1f0734b57d95308af5a136440c194441ac49edd417a1ed26aa78ceda283838360405161177593929190613e8a565b60405180910390a1505050565b600e60009054906101000a900473ffffffffffffffffffffffffffffffffffffffff1681565b60116020528060005260406000206000915054906101000a900460ff1681565b60185481565b60006117d8612646565b81600d8190555060019050919050565b600c5481565b6000600560009054906101000a900473ffffffffffffffffffffffffffffffffffffffff16905090565b60606004805461182790613689565b80601f016020809104026020016040519081016040528092919081815260200182805461185390613689565b80156118a05780601f10611875576101008083540402835291602001916118a0565b820191906000526020600020905b81548152906001019060200180831161188357829003601f168201915b5050505050905090565b6015818051602081018201805184825260208301602085012081835280955050505050506000915090508060000180546118e390613689565b80601f016020809104026020016040519081016040528092919081815260200182805461190f90613689565b801561195c5780601f106119315761010080835404028352916020019161195c565b820191906000526020600020905b81548152906001019060200180831161193f57829003601f168201915b5050505050908060010160009054906101000a900460ff16908060020154908060030154905084565b61198d612646565b6001600a819055506002600b81905550600860009054906101000a900460ff16600a6119b99190613dfd565b629896816119c79190613e48565b600c81905550600860009054906101000a900460ff16600a6119e99190613dfd565b629896816119f79190613e48565b600d81905550565b600080611a0a611ee5565b90506000611a188286611cd1565b905083811015611a5d576040517f08c379a0000000000000000000000000000000000000000000000000000000008152600401611a5490613f33565b60405180910390fd5b611a6a8286868403611eed565b60019250505092915050565b600080611a81611ee5565b9050611a8e8185856120b6565b600191505092915050565b600d5481565b60135481565b6000611aaf612646565b600a8284611abd91906137c1565b1115611afe576040517f08c379a0000000000000000000000000000000000000000000000000000000008152600401611af590613fc5565b60405180910390fd5b82600a8190555081600b819055506001905092915050565b60008115611b4757601583604051611b2e9190613831565b9081526020016040518091039020600301549050611b6c565b601483604051611b579190613831565b90815260200160405180910390206003015490505b92915050565b6000611b7c612646565b600f60009054906101000a900473ffffffffffffffffffffffffffffffffffffffff1673ffffffffffffffffffffffffffffffffffffffff168273ffffffffffffffffffffffffffffffffffffffff1603611c0c576040517f08c379a0000000000000000000000000000000000000000000000000000000008152600401611c0390613bb8565b60405180910390fd5b600073ffffffffffffffffffffffffffffffffffffffff168273ffffffffffffffffffffffffffffffffffffffff1603611c7b576040517f08c379a0000000000000000000000000000000000000000000000000000000008152600401611c7290613bb8565b60405180910390fd5b81600e60006101000a81548173ffffffffffffffffffffffffffffffffffffffff021916908373ffffffffffffffffffffffffffffffffffffffff16021790555060019050919050565b60105481565b60125481565b6000600160008473ffffffffffffffffffffffffffffffffffffffff1673ffffffffffffffffffffffffffffffffffffffff16815260200190815260200160002060008373ffffffffffffffffffffffffffffffffffffffff1673ffffffffffffffffffffffffffffffffffffffff16815260200190815260200160002054905092915050565b60195481565b611d66612646565b80601160008473ffffffffffffffffffffffffffffffffffffffff1673ffffffffffffffffffffffffffffffffffffffff16815260200190815260200160002060006101000a81548160ff0219169083151502179055507f318c131114339c004fff0a22fcdbbc0566bb2a7cd3aa1660e636ec5a66784ff28282604051611dee929190613fe5565b60405180910390a15050565b60008115611e2b57601583604051611e129190613831565b9081526020016040518091039020600201549050611e50565b601483604051611e3b9190613831565b90815260200160405180910390206002015490505b92915050565b611e5e612646565b600073ffffffffffffffffffffffffffffffffffffffff168173ffffffffffffffffffffffffffffffffffffffff1603611ecd576040517f08c379a0000000000000000000000000000000000000000000000000000000008152600401611ec490614080565b60405180910390fd5b611ed681612750565b50565b600a5481565b60175481565b600033905090565b600073ffffffffffffffffffffffffffffffffffffffff168373ffffffffffffffffffffffffffffffffffffffff1603611f5c576040517f08c379a0000000000000000000000000000000000000000000000000000000008152600401611f5390614112565b60405180910390fd5b600073ffffffffffffffffffffffffffffffffffffffff168273ffffffffffffffffffffffffffffffffffffffff1603611fcb576040517f08c379a0000000000000000000000000000000000000000000000000000000008152600401611fc2906141a4565b60405180910390fd5b80600160008573ffffffffffffffffffffffffffffffffffffffff1673ffffffffffffffffffffffffffffffffffffffff16815260200190815260200160002060008473ffffffffffffffffffffffffffffffffffffffff1673ffffffffffffffffffffffffffffffffffffffff168152602001908152602001600020819055508173ffffffffffffffffffffffffffffffffffffffff168373ffffffffffffffffffffffffffffffffffffffff167f8c5be1e5ebec7d5bd14f71427d1e84f3dd0314c0f7b2291e5b200ac8c7c3b925836040516120a99190612f51565b60405180910390a3505050565b600073ffffffffffffffffffffffffffffffffffffffff168373ffffffffffffffffffffffffffffffffffffffff1603612125576040517f08c379a000000000000000000000000000000000000000000000000000000000815260040161211c90614236565b60405180910390fd5b600073ffffffffffffffffffffffffffffffffffffffff168273ffffffffffffffffffffffffffffffffffffffff1603612194576040517f08c379a000000000000000000000000000000000000000000000000000000000815260040161218b906142c8565b60405180910390fd5b8061219e84611652565b10156121df576040517f08c379a00000000000000000000000000000000000000000000000000000000081526004016121d69061435a565b60405180910390fd5b601a60009054906101000a900473ffffffffffffffffffffffffffffffffffffffff1673ffffffffffffffffffffffffffffffffffffffff168373ffffffffffffffffffffffffffffffffffffffff1614806122885750601a60009054906101000a900473ffffffffffffffffffffffffffffffffffffffff1673ffffffffffffffffffffffffffffffffffffffff168273ffffffffffffffffffffffffffffffffffffffff16145b80156122a15750601a60149054906101000a900460ff16155b1561263557601a60009054906101000a900473ffffffffffffffffffffffffffffffffffffffff1673ffffffffffffffffffffffffffffffffffffffff168373ffffffffffffffffffffffffffffffffffffffff16146123fa57600060105461230930611652565b612313919061437a565b9050601254811061232a57612329601254612816565b5b601354601054106123f8576123406013546128d7565b60135460106000828254612354919061437a565b925050819055506000600e60009054906101000a900473ffffffffffffffffffffffffffffffffffffffff1673ffffffffffffffffffffffffffffffffffffffff166108fc479081150290604051600060405180830381858888f193505050509050806123f6576040517f08c379a00000000000000000000000000000000000000000000000000000000081526004016123ed906143fa565b60405180910390fd5b505b505b6000601160008573ffffffffffffffffffffffffffffffffffffffff1673ffffffffffffffffffffffffffffffffffffffff16815260200190815260200160002060009054906101000a900460ff168061249d5750601160008473ffffffffffffffffffffffffffffffffffffffff1673ffffffffffffffffffffffffffffffffffffffff16815260200190815260200160002060009054906101000a900460ff165b156124aa57819050612624565b600c548211156124ef576040517f08c379a00000000000000000000000000000000000000000000000000000000081526004016124e69061448c565b60405180910390fd5b601a60009054906101000a900473ffffffffffffffffffffffffffffffffffffffff1673ffffffffffffffffffffffffffffffffffffffff168473ffffffffffffffffffffffffffffffffffffffff160361259d57600d5461255084611652565b8361255b91906137c1565b111561259c576040517f08c379a00000000000000000000000000000000000000000000000000000000081526004016125939061451e565b60405180910390fd5b5b60006064600b54846125af9190613e48565b6125b99190613c07565b905060006064600a54856125cd9190613e48565b6125d79190613c07565b905080826125e591906137c1565b846125f0919061437a565b9250816010600082825461260491906137c1565b925050819055506126218630838561261c91906137c1565b612b4a565b50505b61262f848483612b4a565b50612641565b612640838383612b4a565b5b505050565b61264e611ee5565b73ffffffffffffffffffffffffffffffffffffffff1661266c6117ee565b73ffffffffffffffffffffffffffffffffffffffff16146126c2576040517f08c379a00000000000000000000000000000000000000000000000000000000081526004016126b99061458a565b60405180910390fd5b565b60006126d08484611cd1565b90507fffffffffffffffffffffffffffffffffffffffffffffffffffffffffffffffff811461274a578181101561273c576040517f08c379a0000000000000000000000000000000000000000000000000000000008152600401612733906145f6565b60405180910390fd5b6127498484848403611eed565b5b50505050565b6000600560009054906101000a900473ffffffffffffffffffffffffffffffffffffffff16905081600560006101000a81548173ffffffffffffffffffffffffffffffffffffffff021916908373ffffffffffffffffffffffffffffffffffffffff1602179055508173ffffffffffffffffffffffffffffffffffffffff168173ffffffffffffffffffffffffffffffffffffffff167f8be0079c531659141344cd1fd0a4f28419497f9722a3daafe3b4186f6b6457e060405160405180910390a35050565b6001601a60146101000a81548160ff02191690831515021790555060006002826128409190613c07565b905060008183612850919061437a565b90506000479050612860836128d7565b6000814761286e919061437a565b905061287a8382612daa565b7f17bbfb9a6069321b6ded73bd96327c9e6b7212a5cd51ff219cd61370acafb5618482856040516128ad93929190614616565b60405180910390a1505050506000601a60146101000a81548160ff02191690831515021790555050565b6001601a60146101000a81548160ff0219169083151502179055506000600267ffffffffffffffff81111561290f5761290e61310a565b5b60405190808252806020026020018201604052801561293d5781602001602082028036833780820191505090505b50905030816000815181106129555761295461464d565b5b602002602001019073ffffffffffffffffffffffffffffffffffffffff16908173ffffffffffffffffffffffffffffffffffffffff16815250507f000000000000000000000000000000000000000000000000000000000000000073ffffffffffffffffffffffffffffffffffffffff1663ad5c46486040518163ffffffff1660e01b8152600401602060405180830381865afa1580156129fa573d6000803e3d6000fd5b505050506040513d601f19601f82011682018060405250810190612a1e9190614691565b81600181518110612a3257612a3161464d565b5b602002602001019073ffffffffffffffffffffffffffffffffffffffff16908173ffffffffffffffffffffffffffffffffffffffff1681525050612a97307f000000000000000000000000000000000000000000000000000000000000000084611eed565b7f000000000000000000000000000000000000000000000000000000000000000073ffffffffffffffffffffffffffffffffffffffff1663791ac9478360008430426040518663ffffffff1660e01b8152600401612af99594939291906147b7565b600060405180830381600087803b158015612b1357600080fd5b505af1158015612b27573d6000803e3d6000fd5b50505050506000601a60146101000a81548160ff02191690831515021790555050565b600073ffffffffffffffffffffffffffffffffffffffff168373ffffffffffffffffffffffffffffffffffffffff1603612bb9576040517f08c379a0000000000000000000000000000000000000000000000000000000008152600401612bb090614236565b60405180910390fd5b600073ffffffffffffffffffffffffffffffffffffffff168273ffffffffffffffffffffffffffffffffffffffff1603612c28576040517f08c379a0000000000000000000000000000000000000000000000000000000008152600401612c1f906142c8565b60405180910390fd5b60008060008573ffffffffffffffffffffffffffffffffffffffff1673ffffffffffffffffffffffffffffffffffffffff16815260200190815260200160002054905081811015612cae576040517f08c379a0000000000000000000000000000000000000000000000000000000008152600401612ca59061435a565b60405180910390fd5b8181036000808673ffffffffffffffffffffffffffffffffffffffff1673ffffffffffffffffffffffffffffffffffffffff16815260200190815260200160002081905550816000808573ffffffffffffffffffffffffffffffffffffffff1673ffffffffffffffffffffffffffffffffffffffff168152602001908152602001600020600082825401925050819055508273ffffffffffffffffffffffffffffffffffffffff168473ffffffffffffffffffffffffffffffffffffffff167fddf252ad1be2c89b69c2b068fc378daa952ba7f163c4a11628f55a4df523b3ef84604051612d9c9190612f51565b60405180910390a350505050565b6001601a60146101000a81548160ff021916908315150217905550612df0307f000000000000000000000000000000000000000000000000000000000000000084611eed565b7f000000000000000000000000000000000000000000000000000000000000000073ffffffffffffffffffffffffffffffffffffffff1663f305d719823085600080600e60009054906101000a900473ffffffffffffffffffffffffffffffffffffffff16426040518863ffffffff1660e01b8152600401612e7796959493929190614811565b60606040518083038185885af1158015612e95573d6000803e3d6000fd5b50505050506040513d601f19601f82011682018060405250810190612eba9190614887565b5050506000601a60146101000a81548160ff0219169083151502179055505050565b600073ffffffffffffffffffffffffffffffffffffffff82169050919050565b6000612f0782612edc565b9050919050565b612f1781612efc565b82525050565b6000602082019050612f326000830184612f0e565b92915050565b6000819050919050565b612f4b81612f38565b82525050565b6000602082019050612f666000830184612f42565b92915050565b600081519050919050565b600082825260208201905092915050565b60005b83811015612fa6578082015181840152602081019050612f8b565b60008484015250505050565b6000601f19601f8301169050919050565b6000612fce82612f6c565b612fd88185612f77565b9350612fe8818560208601612f88565b612ff181612fb2565b840191505092915050565b600060208201905081810360008301526130168184612fc3565b905092915050565b6000604051905090565b600080fd5b600080fd5b61303b81612efc565b811461304657600080fd5b50565b60008135905061305881613032565b92915050565b61306781612f38565b811461307257600080fd5b50565b6000813590506130848161305e565b92915050565b600080604083850312156130a1576130a0613028565b5b60006130af85828601613049565b92505060206130c085828601613075565b9150509250929050565b60008115159050919050565b6130df816130ca565b82525050565b60006020820190506130fa60008301846130d6565b92915050565b600080fd5b600080fd5b7f4e487b7100000000000000000000000000000000000000000000000000000000600052604160045260246000fd5b61314282612fb2565b810181811067ffffffffffffffff821117156131615761316061310a565b5b80604052505050565b600061317461301e565b90506131808282613139565b919050565b600067ffffffffffffffff8211156131a05761319f61310a565b5b6131a982612fb2565b9050602081019050919050565b82818337600083830152505050565b60006131d86131d384613185565b61316a565b9050828152602081018484840111156131f4576131f3613105565b5b6131ff8482856131b6565b509392505050565b600082601f83011261321c5761321b613100565b5b813561322c8482602086016131c5565b91505092915050565b60006020828403121561324b5761324a613028565b5b600082013567ffffffffffffffff8111156132695761326861302d565b5b61327584828501613207565b91505092915050565b6000819050919050565b60006132a361329e61329984612edc565b61327e565b612edc565b9050919050565b60006132b582613288565b9050919050565b60006132c7826132aa565b9050919050565b6132d7816132bc565b82525050565b60006020820190506132f260008301846132ce565b92915050565b613301816130ca565b811461330c57600080fd5b50565b60008135905061331e816132f8565b92915050565b600080600080600060a086880312156133405761333f613028565b5b600086013567ffffffffffffffff81111561335e5761335d61302d565b5b61336a88828901613207565b955050602061337b8882890161330f565b945050604061338c8882890161330f565b935050606061339d88828901613075565b92505060806133ae88828901613075565b9150509295509295909350565b6000602082840312156133d1576133d0613028565b5b60006133df84828501613049565b91505092915050565b60008060006060848603121561340157613400613028565b5b600061340f86828701613049565b935050602061342086828701613049565b925050604061343186828701613075565b9150509250925092565b6000806040838503121561345257613451613028565b5b600061346085828601613075565b925050602061347185828601613075565b9150509250929050565b600060ff82169050919050565b6134918161347b565b82525050565b60006020820190506134ac6000830184613488565b92915050565b600080604083850312156134c9576134c8613028565b5b600083013567ffffffffffffffff8111156134e7576134e661302d565b5b6134f385828601613207565b92505060206135048582860161330f565b9150509250929050565b600060808201905081810360008301526135288187612fc3565b905061353760208301866130d6565b6135446040830185612f42565b6135516060830184612f42565b95945050505050565b6000602082840312156135705761356f613028565b5b600061357e84828501613075565b91505092915050565b6000806000606084860312156135a05761359f613028565b5b60006135ae8682870161330f565b93505060206135bf8682870161330f565b92505060406135d086828701613075565b9150509250925092565b600080604083850312156135f1576135f0613028565b5b60006135ff85828601613049565b925050602061361085828601613049565b9150509250929050565b6000806040838503121561363157613630613028565b5b600061363f85828601613049565b92505060206136508582860161330f565b9150509250929050565b7f4e487b7100000000000000000000000000000000000000000000000000000000600052602260045260246000fd5b600060028204905060018216806136a157607f821691505b6020821081036136b4576136b361365a565b5b50919050565b7f4e6f7420656e6f756768204554482073656e7421000000000000000000000000600082015250565b60006136f0601483612f77565b91506136fb826136ba565b602082019050919050565b6000602082019050818103600083015261371f816136e3565b9050919050565b7f4e6f7420656e6f75676820746f6b656e73210000000000000000000000000000600082015250565b600061375c601283612f77565b915061376782613726565b602082019050919050565b6000602082019050818103600083015261378b8161374f565b9050919050565b7f4e487b7100000000000000000000000000000000000000000000000000000000600052601160045260246000fd5b60006137cc82612f38565b91506137d783612f38565b92508282019050808211156137ef576137ee613792565b5b92915050565b600081905092915050565b600061380b82612f6c565b61381581856137f5565b9350613825818560208601612f88565b80840191505092915050565b600061383d8284613800565b915081905092915050565b60008190508160005260206000209050919050565b60006020601f8301049050919050565b600082821b905092915050565b6000600883026138aa7fffffffffffffffffffffffffffffffffffffffffffffffffffffffffffffffff8261386d565b6138b4868361386d565b95508019841693508086168417925050509392505050565b60006138e76138e26138dd84612f38565b61327e565b612f38565b9050919050565b6000819050919050565b613901836138cc565b61391561390d826138ee565b84845461387a565b825550505050565b600090565b61392a61391d565b6139358184846138f8565b505050565b5b818110156139595761394e600082613922565b60018101905061393b565b5050565b601f82111561399e5761396f81613848565b6139788461385d565b81016020851015613987578190505b61399b6139938561385d565b83018261393a565b50505b505050565b600082821c905092915050565b60006139c1600019846008026139a3565b1980831691505092915050565b60006139da83836139b0565b9150826002028217905092915050565b6139f382612f6c565b67ffffffffffffffff811115613a0c57613a0b61310a565b5b613a168254613689565b613a2182828561395d565b600060209050601f831160018114613a545760008415613a42578287015190505b613a4c85826139ce565b865550613ab4565b601f198416613a6286613848565b60005b82811015613a8a57848901518255600182019150602085019450602081019050613a65565b86831015613aa75784890151613aa3601f8916826139b0565b8355505b6001600288020188555050505b505050505050565b60006040820190508181036000830152613ad68185612fc3565b9050613ae56020830184612f42565b9392505050565b600060a0820190508181036000830152613b068188612fc3565b9050613b1560208301876130d6565b613b2260408301866130d6565b613b2f6060830185612f42565b613b3c6080830184612f42565b9695505050505050565b7f4c5020506169722063616e6e6f742062652074686520446561642077616c6c6560008201527f742c206f72203021000000000000000000000000000000000000000000000000602082015250565b6000613ba2602883612f77565b9150613bad82613b46565b604082019050919050565b60006020820190508181036000830152613bd181613b95565b9050919050565b7f4e487b7100000000000000000000000000000000000000000000000000000000600052601260045260246000fd5b6000613c1282612f38565b9150613c1d83612f38565b925082613c2d57613c2c613bd8565b5b828204905092915050565b7f43616e6e6f74206c6971756964617465206d6f7265207468616e203225206f6660008201527f2074686520737570706c79206174206f6e636521000000000000000000000000602082015250565b6000613c94603483612f77565b9150613c9f82613c38565b604082019050919050565b60006020820190508181036000830152613cc381613c87565b9050919050565b60008160011c9050919050565b6000808291508390505b6001851115613d2157808604811115613cfd57613cfc613792565b5b6001851615613d0c5780820291505b8081029050613d1a85613cca565b9450613ce1565b94509492505050565b600082613d3a5760019050613df6565b81613d485760009050613df6565b8160018114613d5e5760028114613d6857613d97565b6001915050613df6565b60ff841115613d7a57613d79613792565b5b8360020a915084821115613d9157613d90613792565b5b50613df6565b5060208310610133831016604e8410600b8410161715613dcc5782820a905083811115613dc757613dc6613792565b5b613df6565b613dd98484846001613cd7565b92509050818404811115613df057613def613792565b5b81810290505b9392505050565b6000613e0882612f38565b9150613e138361347b565b9250613e407fffffffffffffffffffffffffffffffffffffffffffffffffffffffffffffffff8484613d2a565b905092915050565b6000613e5382612f38565b9150613e5e83612f38565b9250828202613e6c81612f38565b91508282048414831517613e8357613e82613792565b5b5092915050565b6000606082019050613e9f60008301866130d6565b613eac60208301856130d6565b613eb96040830184612f42565b949350505050565b7f45524332303a2064656372656173656420616c6c6f77616e63652062656c6f7760008201527f207a65726f000000000000000000000000000000000000000000000000000000602082015250565b6000613f1d602583612f77565b9150613f2882613ec1565b604082019050919050565b60006020820190508181036000830152613f4c81613f10565b9050919050565b7f45524332303a20746f74616c20746178206d757374206e6f742062652067726560008201527f61746572207468616e2031302500000000000000000000000000000000000000602082015250565b6000613faf602d83612f77565b9150613fba82613f53565b604082019050919050565b60006020820190508181036000830152613fde81613fa2565b9050919050565b6000604082019050613ffa6000830185612f0e565b61400760208301846130d6565b9392505050565b7f4f776e61626c653a206e6577206f776e657220697320746865207a65726f206160008201527f6464726573730000000000000000000000000000000000000000000000000000602082015250565b600061406a602683612f77565b91506140758261400e565b604082019050919050565b600060208201905081810360008301526140998161405d565b9050919050565b7f45524332303a20617070726f76652066726f6d20746865207a65726f2061646460008201527f7265737300000000000000000000000000000000000000000000000000000000602082015250565b60006140fc602483612f77565b9150614107826140a0565b604082019050919050565b6000602082019050818103600083015261412b816140ef565b9050919050565b7f45524332303a20617070726f766520746f20746865207a65726f20616464726560008201527f7373000000000000000000000000000000000000000000000000000000000000602082015250565b600061418e602283612f77565b915061419982614132565b604082019050919050565b600060208201905081810360008301526141bd81614181565b9050919050565b7f45524332303a207472616e736665722066726f6d20746865207a65726f20616460008201527f6472657373000000000000000000000000000000000000000000000000000000602082015250565b6000614220602583612f77565b915061422b826141c4565b604082019050919050565b6000602082019050818103600083015261424f81614213565b9050919050565b7f45524332303a207472616e7366657220746f20746865207a65726f206164647260008201527f6573730000000000000000000000000000000000000000000000000000000000602082015250565b60006142b2602383612f77565b91506142bd82614256565b604082019050919050565b600060208201905081810360008301526142e1816142a5565b9050919050565b7f45524332303a207472616e7366657220616d6f756e742065786365656473206260008201527f616c616e63650000000000000000000000000000000000000000000000000000602082015250565b6000614344602683612f77565b915061434f826142e8565b604082019050919050565b6000602082019050818103600083015261437381614337565b9050919050565b600061438582612f38565b915061439083612f38565b92508282039050818111156143a8576143a7613792565b5b92915050565b7f4661696c656420746f2073656e64204554480000000000000000000000000000600082015250565b60006143e4601283612f77565b91506143ef826143ae565b602082019050919050565b60006020820190508181036000830152614413816143d7565b9050919050565b7f45524332303a207472616e7366657220616d6f756e742065786365656473207460008201527f6865206d6178207472616e73616374696f6e20616d6f756e7400000000000000602082015250565b6000614476603983612f77565b91506144818261441a565b604082019050919050565b600060208201905081810360008301526144a581614469565b9050919050565b7f45524332303a2062616c616e636520616d6f756e74206578636565646564206d60008201527f61782077616c6c657420616d6f756e74206c696d697400000000000000000000602082015250565b6000614508603683612f77565b9150614513826144ac565b604082019050919050565b60006020820190508181036000830152614537816144fb565b9050919050565b7f4f776e61626c653a2063616c6c6572206973206e6f7420746865206f776e6572600082015250565b6000614574602083612f77565b915061457f8261453e565b602082019050919050565b600060208201905081810360008301526145a381614567565b9050919050565b7f45524332303a20696e73756666696369656e7420616c6c6f77616e6365000000600082015250565b60006145e0601d83612f77565b91506145eb826145aa565b602082019050919050565b6000602082019050818103600083015261460f816145d3565b9050919050565b600060608201905061462b6000830186612f42565b6146386020830185612f42565b6146456040830184612f42565b949350505050565b7f4e487b7100000000000000000000000000000000000000000000000000000000600052603260045260246000fd5b60008151905061468b81613032565b92915050565b6000602082840312156146a7576146a6613028565b5b60006146b58482850161467c565b91505092915050565b6000819050919050565b60006146e36146de6146d9846146be565b61327e565b612f38565b9050919050565b6146f3816146c8565b82525050565b600081519050919050565b600082825260208201905092915050565b6000819050602082019050919050565b61472e81612efc565b82525050565b60006147408383614725565b60208301905092915050565b6000602082019050919050565b6000614764826146f9565b61476e8185614704565b935061477983614715565b8060005b838110156147aa5781516147918882614734565b975061479c8361474c565b92505060018101905061477d565b5085935050505092915050565b600060a0820190506147cc6000830188612f42565b6147d960208301876146ea565b81810360408301526147eb8186614759565b90506147fa6060830185612f0e565b6148076080830184612f42565b9695505050505050565b600060c0820190506148266000830189612f0e565b6148336020830188612f42565b61484060408301876146ea565b61484d60608301866146ea565b61485a6080830185612f0e565b61486760a0830184612f42565b979650505050505050565b6000815190506148818161305e565b92915050565b6000806000606084860312156148a05761489f613028565b5b60006148ae86828701614872565b93505060206148bf86828701614872565b92505060406148d086828701614872565b915050925092509256fea2646970667358221220f427240bf8f202cb374f9db4c44e44f826fb4d86788d399f27e9f662cf32bcf364736f6c63430008110033",
  "linkReferences": {},
  "deployedLinkReferences": {}
}